{
	"contracts/Lottery.sol": {
		"Lottery": {
			"abi": [
				{
					"inputs": [],
					"stateMutability": "nonpayable",
					"type": "constructor"
				},
				{
					"inputs": [],
					"name": "allPlayers",
					"outputs": [
						{
							"internalType": "address payable[]",
							"name": "",
							"type": "address[]"
						}
					],
					"stateMutability": "view",
					"type": "function"
				},
				{
					"inputs": [],
					"name": "getBalance",
					"outputs": [
						{
							"internalType": "uint256",
							"name": "",
							"type": "uint256"
						}
					],
					"stateMutability": "view",
					"type": "function"
				},
				{
					"inputs": [],
					"name": "pickWinner",
					"outputs": [],
					"stateMutability": "nonpayable",
					"type": "function"
				},
				{
					"inputs": [
						{
							"internalType": "uint256",
							"name": "",
							"type": "uint256"
						}
					],
					"name": "players",
					"outputs": [
						{
							"internalType": "address payable",
							"name": "",
							"type": "address"
						}
					],
					"stateMutability": "view",
					"type": "function"
				},
				{
					"inputs": [],
					"name": "winner",
					"outputs": [
						{
							"internalType": "address payable",
							"name": "",
							"type": "address"
						}
					],
					"stateMutability": "view",
					"type": "function"
				},
				{
					"stateMutability": "payable",
					"type": "receive"
				}
			],
			"devdoc": {
				"kind": "dev",
				"methods": {},
				"version": 1
			},
			"evm": {
				"assembly": "    /* \"contracts/Lottery.sol\":57:1215  contract Lottery {... */\n  mstore(0x40, 0x80)\n    /* \"contracts/Lottery.sol\":175:226  constructor (){... */\n  callvalue\n  dup1\n  iszero\n  tag_1\n  jumpi\n  0x00\n  dup1\n  revert\ntag_1:\n  pop\n    /* \"contracts/Lottery.sol\":209:219  msg.sender */\n  caller\n    /* \"contracts/Lottery.sol\":199:206  manager */\n  0x01\n  0x00\n    /* \"contracts/Lottery.sol\":199:219  manager = msg.sender */\n  0x0100\n  exp\n  dup2\n  sload\n  dup2\n  0xffffffffffffffffffffffffffffffffffffffff\n  mul\n  not\n  and\n  swap1\n  dup4\n  0xffffffffffffffffffffffffffffffffffffffff\n  and\n  mul\n  or\n  swap1\n  sstore\n  pop\n    /* \"contracts/Lottery.sol\":57:1215  contract Lottery {... */\n  dataSize(sub_0)\n  dup1\n  dataOffset(sub_0)\n  0x00\n  codecopy\n  0x00\n  return\nstop\n\nsub_0: assembly {\n        /* \"contracts/Lottery.sol\":57:1215  contract Lottery {... */\n      mstore(0x40, 0x80)\n      jumpi(tag_1, lt(calldatasize, 0x04))\n      shr(0xe0, calldataload(0x00))\n      dup1\n      0x12065fe0\n      eq\n      tag_3\n      jumpi\n      dup1\n      0x5d495aea\n      eq\n      tag_4\n      jumpi\n      dup1\n      0xb0ec8094\n      eq\n      tag_5\n      jumpi\n      dup1\n      0xdfbf53ae\n      eq\n      tag_6\n      jumpi\n      dup1\n      0xf71d96cb\n      eq\n      tag_7\n      jumpi\n      jump(tag_2)\n    tag_1:\n      jumpi(tag_2, calldatasize)\n        /* \"contracts/Lottery.sol\":290:297  1 ether */\n      0x0de0b6b3a7640000\n        /* \"contracts/Lottery.sol\":277:286  msg.value */\n      callvalue\n        /* \"contracts/Lottery.sol\":277:297  msg.value == 1 ether */\n      eq\n        /* \"contracts/Lottery.sol\":269:326  require(msg.value == 1 ether , \"value maust be 1 ether.\") */\n      tag_10\n      jumpi\n      mload(0x40)\n      0x08c379a000000000000000000000000000000000000000000000000000000000\n      dup2\n      mstore\n      0x04\n      add\n      tag_11\n      swap1\n      tag_12\n      jump\t// in\n    tag_11:\n      mload(0x40)\n      dup1\n      swap2\n      sub\n      swap1\n      revert\n    tag_10:\n        /* \"contracts/Lottery.sol\":336:343  players */\n      0x00\n        /* \"contracts/Lottery.sol\":357:367  msg.sender */\n      caller\n        /* \"contracts/Lottery.sol\":336:369  players.push(payable(msg.sender)) */\n      swap1\n      dup1\n      0x01\n      dup2\n      sload\n      add\n      dup1\n      dup3\n      sstore\n      dup1\n      swap2\n      pop\n      pop\n      0x01\n      swap1\n      sub\n      swap1\n      0x00\n      mstore\n      keccak256(0x00, 0x20)\n      add\n      0x00\n      swap1\n      swap2\n      swap1\n      swap2\n      swap1\n      swap2\n      0x0100\n      exp\n      dup2\n      sload\n      dup2\n      0xffffffffffffffffffffffffffffffffffffffff\n      mul\n      not\n      and\n      swap1\n      dup4\n      0xffffffffffffffffffffffffffffffffffffffff\n      and\n      mul\n      or\n      swap1\n      sstore\n      pop\n        /* \"contracts/Lottery.sol\":57:1215  contract Lottery {... */\n      stop\n    tag_2:\n      0x00\n      dup1\n      revert\n        /* \"contracts/Lottery.sol\":382:554  function getBalance() public view returns(uint){... */\n    tag_3:\n      callvalue\n      dup1\n      iszero\n      tag_14\n      jumpi\n      0x00\n      dup1\n      revert\n    tag_14:\n      pop\n      tag_15\n      tag_16\n      jump\t// in\n    tag_15:\n      mload(0x40)\n      tag_17\n      swap2\n      swap1\n      tag_18\n      jump\t// in\n    tag_17:\n      mload(0x40)\n      dup1\n      swap2\n      sub\n      swap1\n      return\n        /* \"contracts/Lottery.sol\":715:1124  function pickWinner() public {... */\n    tag_4:\n      callvalue\n      dup1\n      iszero\n      tag_19\n      jumpi\n      0x00\n      dup1\n      revert\n    tag_19:\n      pop\n      tag_20\n      tag_21\n      jump\t// in\n    tag_20:\n      stop\n        /* \"contracts/Lottery.sol\":1130:1213  function allPlayers() public view returns(address payable[] memory){... */\n    tag_5:\n      callvalue\n      dup1\n      iszero\n      tag_22\n      jumpi\n      0x00\n      dup1\n      revert\n    tag_22:\n      pop\n      tag_23\n      tag_24\n      jump\t// in\n    tag_23:\n      mload(0x40)\n      tag_25\n      swap2\n      swap1\n      tag_26\n      jump\t// in\n    tag_25:\n      mload(0x40)\n      dup1\n      swap2\n      sub\n      swap1\n      return\n        /* \"contracts/Lottery.sol\":139:168  address payable public winner */\n    tag_6:\n      callvalue\n      dup1\n      iszero\n      tag_27\n      jumpi\n      0x00\n      dup1\n      revert\n    tag_27:\n      pop\n      tag_28\n      tag_29\n      jump\t// in\n    tag_28:\n      mload(0x40)\n      tag_30\n      swap2\n      swap1\n      tag_31\n      jump\t// in\n    tag_30:\n      mload(0x40)\n      dup1\n      swap2\n      sub\n      swap1\n      return\n        /* \"contracts/Lottery.sol\":80:112  address payable[] public players */\n    tag_7:\n      callvalue\n      dup1\n      iszero\n      tag_32\n      jumpi\n      0x00\n      dup1\n      revert\n    tag_32:\n      pop\n      tag_33\n      0x04\n      dup1\n      calldatasize\n      sub\n      dup2\n      add\n      swap1\n      tag_34\n      swap2\n      swap1\n      tag_35\n      jump\t// in\n    tag_34:\n      tag_36\n      jump\t// in\n    tag_33:\n      mload(0x40)\n      tag_37\n      swap2\n      swap1\n      tag_31\n      jump\t// in\n    tag_37:\n      mload(0x40)\n      dup1\n      swap2\n      sub\n      swap1\n      return\n        /* \"contracts/Lottery.sol\":382:554  function getBalance() public view returns(uint){... */\n    tag_16:\n        /* \"contracts/Lottery.sol\":424:428  uint */\n      0x00\n        /* \"contracts/Lottery.sol\":461:468  manager */\n      0x01\n      0x00\n      swap1\n      sload\n      swap1\n      0x0100\n      exp\n      swap1\n      div\n      0xffffffffffffffffffffffffffffffffffffffff\n      and\n        /* \"contracts/Lottery.sol\":447:468  msg.sender == manager */\n      0xffffffffffffffffffffffffffffffffffffffff\n      and\n        /* \"contracts/Lottery.sol\":447:457  msg.sender */\n      caller\n        /* \"contracts/Lottery.sol\":447:468  msg.sender == manager */\n      0xffffffffffffffffffffffffffffffffffffffff\n      and\n      eq\n        /* \"contracts/Lottery.sol\":439:509  require(msg.sender == manager , \"only manager can check the balance.\") */\n      tag_39\n      jumpi\n      mload(0x40)\n      0x08c379a000000000000000000000000000000000000000000000000000000000\n      dup2\n      mstore\n      0x04\n      add\n      tag_40\n      swap1\n      tag_41\n      jump\t// in\n    tag_40:\n      mload(0x40)\n      dup1\n      swap2\n      sub\n      swap1\n      revert\n    tag_39:\n        /* \"contracts/Lottery.sol\":526:547  address(this).balance */\n      selfbalance\n        /* \"contracts/Lottery.sol\":519:547  return address(this).balance */\n      swap1\n      pop\n        /* \"contracts/Lottery.sol\":382:554  function getBalance() public view returns(uint){... */\n      swap1\n      jump\t// out\n        /* \"contracts/Lottery.sol\":715:1124  function pickWinner() public {... */\n    tag_21:\n        /* \"contracts/Lottery.sol\":777:784  manager */\n      0x01\n      0x00\n      swap1\n      sload\n      swap1\n      0x0100\n      exp\n      swap1\n      div\n      0xffffffffffffffffffffffffffffffffffffffff\n      and\n        /* \"contracts/Lottery.sol\":763:784  msg.sender == manager */\n      0xffffffffffffffffffffffffffffffffffffffff\n      and\n        /* \"contracts/Lottery.sol\":763:773  msg.sender */\n      caller\n        /* \"contracts/Lottery.sol\":763:784  msg.sender == manager */\n      0xffffffffffffffffffffffffffffffffffffffff\n      and\n      eq\n        /* \"contracts/Lottery.sol\":754:814  require (msg.sender == manager , \"you are not the manager.\") */\n      tag_43\n      jumpi\n      mload(0x40)\n      0x08c379a000000000000000000000000000000000000000000000000000000000\n      dup2\n      mstore\n      0x04\n      add\n      tag_44\n      swap1\n      tag_45\n      jump\t// in\n    tag_44:\n      mload(0x40)\n      dup1\n      swap2\n      sub\n      swap1\n      revert\n    tag_43:\n        /* \"contracts/Lottery.sol\":851:852  3 */\n      0x03\n        /* \"contracts/Lottery.sol\":833:840  players */\n      0x00\n        /* \"contracts/Lottery.sol\":833:847  players.length */\n      dup1\n      sload\n      swap1\n      pop\n        /* \"contracts/Lottery.sol\":833:852  players.length >= 3 */\n      lt\n      iszero\n        /* \"contracts/Lottery.sol\":824:881  require (players.length >= 3 , \"Players are less than 3\") */\n      tag_46\n      jumpi\n      mload(0x40)\n      0x08c379a000000000000000000000000000000000000000000000000000000000\n      dup2\n      mstore\n      0x04\n      add\n      tag_47\n      swap1\n      tag_48\n      jump\t// in\n    tag_47:\n      mload(0x40)\n      dup1\n      swap2\n      sub\n      swap1\n      revert\n    tag_46:\n        /* \"contracts/Lottery.sol\":893:899  uint r */\n      0x00\n        /* \"contracts/Lottery.sol\":902:910  random() */\n      tag_49\n        /* \"contracts/Lottery.sol\":902:908  random */\n      tag_50\n        /* \"contracts/Lottery.sol\":902:910  random() */\n      jump\t// in\n    tag_49:\n        /* \"contracts/Lottery.sol\":893:910  uint r = random() */\n      swap1\n      pop\n        /* \"contracts/Lottery.sol\":920:930  uint index */\n      0x00\n        /* \"contracts/Lottery.sol\":937:944  players */\n      dup1\n        /* \"contracts/Lottery.sol\":937:951  players.length */\n      dup1\n      sload\n      swap1\n      pop\n        /* \"contracts/Lottery.sol\":933:934  r */\n      dup3\n        /* \"contracts/Lottery.sol\":933:951  r % players.length */\n      tag_51\n      swap2\n      swap1\n      tag_52\n      jump\t// in\n    tag_51:\n        /* \"contracts/Lottery.sol\":920:951  uint index = r % players.length */\n      swap1\n      pop\n        /* \"contracts/Lottery.sol\":1018:1025  players */\n      0x00\n        /* \"contracts/Lottery.sol\":1026:1031  index */\n      dup2\n        /* \"contracts/Lottery.sol\":1018:1032  players[index] */\n      dup2\n      sload\n      dup2\n      lt\n      tag_53\n      jumpi\n      tag_54\n      tag_55\n      jump\t// in\n    tag_54:\n    tag_53:\n      swap1\n      0x00\n      mstore\n      keccak256(0x00, 0x20)\n      add\n      0x00\n      swap1\n      sload\n      swap1\n      0x0100\n      exp\n      swap1\n      div\n      0xffffffffffffffffffffffffffffffffffffffff\n      and\n        /* \"contracts/Lottery.sol\":1009:1015  winner */\n      0x02\n      0x00\n        /* \"contracts/Lottery.sol\":1009:1032  winner = players[index] */\n      0x0100\n      exp\n      dup2\n      sload\n      dup2\n      0xffffffffffffffffffffffffffffffffffffffff\n      mul\n      not\n      and\n      swap1\n      dup4\n      0xffffffffffffffffffffffffffffffffffffffff\n      and\n      mul\n      or\n      swap1\n      sstore\n      pop\n        /* \"contracts/Lottery.sol\":1043:1049  winner */\n      0x02\n      0x00\n      swap1\n      sload\n      swap1\n      0x0100\n      exp\n      swap1\n      div\n      0xffffffffffffffffffffffffffffffffffffffff\n      and\n        /* \"contracts/Lottery.sol\":1043:1058  winner.transfer */\n      0xffffffffffffffffffffffffffffffffffffffff\n      and\n        /* \"contracts/Lottery.sol\":1043:1072  winner.transfer(getBalance()) */\n      0x08fc\n        /* \"contracts/Lottery.sol\":1059:1071  getBalance() */\n      tag_57\n        /* \"contracts/Lottery.sol\":1059:1069  getBalance */\n      tag_16\n        /* \"contracts/Lottery.sol\":1059:1071  getBalance() */\n      jump\t// in\n    tag_57:\n        /* \"contracts/Lottery.sol\":1043:1072  winner.transfer(getBalance()) */\n      swap1\n      dup2\n      iszero\n      mul\n      swap1\n      mload(0x40)\n      0x00\n      mload(0x40)\n      dup1\n      dup4\n      sub\n      dup2\n      dup6\n      dup9\n      dup9\n      call\n      swap4\n      pop\n      pop\n      pop\n      pop\n      iszero\n      dup1\n      iszero\n      tag_59\n      jumpi\n      returndatasize\n      0x00\n      dup1\n      returndatacopy\n      revert(0x00, returndatasize)\n    tag_59:\n      pop\n        /* \"contracts/Lottery.sol\":1115:1116  0 */\n      0x00\n        /* \"contracts/Lottery.sol\":1093:1117  new address payable[](0) */\n      0xffffffffffffffff\n      dup2\n      gt\n      iszero\n      tag_60\n      jumpi\n      tag_61\n      tag_62\n      jump\t// in\n    tag_61:\n    tag_60:\n      mload(0x40)\n      swap1\n      dup1\n      dup3\n      mstore\n      dup1\n      0x20\n      mul\n      0x20\n      add\n      dup3\n      add\n      0x40\n      mstore\n      dup1\n      iszero\n      tag_63\n      jumpi\n      dup2\n      0x20\n      add\n      0x20\n      dup3\n      mul\n      dup1\n      calldatasize\n      dup4\n      calldatacopy\n      dup1\n      dup3\n      add\n      swap2\n      pop\n      pop\n      swap1\n      pop\n    tag_63:\n      pop\n        /* \"contracts/Lottery.sol\":1083:1090  players */\n      0x00\n        /* \"contracts/Lottery.sol\":1083:1117  players = new address payable[](0) */\n      swap1\n      dup1\n      mload\n      swap1\n      0x20\n      add\n      swap1\n      tag_64\n      swap3\n      swap2\n      swap1\n      tag_65\n      jump\t// in\n    tag_64:\n      pop\n        /* \"contracts/Lottery.sol\":744:1124  {... */\n      pop\n      pop\n        /* \"contracts/Lottery.sol\":715:1124  function pickWinner() public {... */\n      jump\t// out\n        /* \"contracts/Lottery.sol\":1130:1213  function allPlayers() public view returns(address payable[] memory){... */\n    tag_24:\n        /* \"contracts/Lottery.sol\":1172:1196  address payable[] memory */\n      0x60\n        /* \"contracts/Lottery.sol\":1130:1213  function allPlayers() public view returns(address payable[] memory){... */\n      swap1\n      jump\t// out\n        /* \"contracts/Lottery.sol\":139:168  address payable public winner */\n    tag_29:\n      0x02\n      0x00\n      swap1\n      sload\n      swap1\n      0x0100\n      exp\n      swap1\n      div\n      0xffffffffffffffffffffffffffffffffffffffff\n      and\n      dup2\n      jump\t// out\n        /* \"contracts/Lottery.sol\":80:112  address payable[] public players */\n    tag_36:\n      0x00\n      dup2\n      dup2\n      sload\n      dup2\n      lt\n      tag_67\n      jumpi\n      0x00\n      dup1\n      revert\n    tag_67:\n      swap1\n      0x00\n      mstore\n      keccak256(0x00, 0x20)\n      add\n      0x00\n      swap2\n      pop\n      sload\n      swap1\n      0x0100\n      exp\n      swap1\n      div\n      0xffffffffffffffffffffffffffffffffffffffff\n      and\n      dup2\n      jump\t// out\n        /* \"contracts/Lottery.sol\":560:709  function random() internal view returns(uint){... */\n    tag_50:\n        /* \"contracts/Lottery.sol\":600:604  uint */\n      0x00\n        /* \"contracts/Lottery.sol\":652:668  block.difficulty */\n      difficulty\n        /* \"contracts/Lottery.sol\":669:684  block.timestamp */\n      timestamp\n        /* \"contracts/Lottery.sol\":685:692  players */\n      0x00\n        /* \"contracts/Lottery.sol\":685:699  players.length */\n      dup1\n      sload\n      swap1\n      pop\n        /* \"contracts/Lottery.sol\":635:700  abi.encodePacked(block.difficulty,block.timestamp,players.length) */\n      add(0x20, mload(0x40))\n      tag_70\n      swap4\n      swap3\n      swap2\n      swap1\n      tag_71\n      jump\t// in\n    tag_70:\n      mload(0x40)\n      0x20\n      dup2\n      dup4\n      sub\n      sub\n      dup2\n      mstore\n      swap1\n      0x40\n      mstore\n        /* \"contracts/Lottery.sol\":625:701  keccak256(abi.encodePacked(block.difficulty,block.timestamp,players.length)) */\n      dup1\n      mload\n      swap1\n      0x20\n      add\n      keccak256\n        /* \"contracts/Lottery.sol\":620:702  uint(keccak256(abi.encodePacked(block.difficulty,block.timestamp,players.length))) */\n      0x00\n      shr\n        /* \"contracts/Lottery.sol\":613:702  return uint(keccak256(abi.encodePacked(block.difficulty,block.timestamp,players.length))) */\n      swap1\n      pop\n        /* \"contracts/Lottery.sol\":560:709  function random() internal view returns(uint){... */\n      swap1\n      jump\t// out\n    tag_65:\n      dup3\n      dup1\n      sload\n      dup3\n      dup3\n      sstore\n      swap1\n      0x00\n      mstore\n      keccak256(0x00, 0x20)\n      swap1\n      dup2\n      add\n      swap3\n      dup3\n      iszero\n      tag_72\n      jumpi\n      swap2\n      0x20\n      mul\n      dup3\n      add\n    tag_73:\n      dup3\n      dup2\n      gt\n      iszero\n      tag_74\n      jumpi\n      dup3\n      mload\n      dup3\n      exp(0x0100, 0x00)\n      dup2\n      sload\n      dup2\n      0xffffffffffffffffffffffffffffffffffffffff\n      mul\n      not\n      and\n      swap1\n      dup4\n      0xffffffffffffffffffffffffffffffffffffffff\n      and\n      mul\n      or\n      swap1\n      sstore\n      pop\n      swap2\n      0x20\n      add\n      swap2\n      swap1\n      0x01\n      add\n      swap1\n      jump(tag_73)\n    tag_74:\n    tag_72:\n      pop\n      swap1\n      pop\n      tag_75\n      swap2\n      swap1\n      tag_76\n      jump\t// in\n    tag_75:\n      pop\n      swap1\n      jump\t// out\n    tag_76:\n    tag_77:\n      dup1\n      dup3\n      gt\n      iszero\n      tag_78\n      jumpi\n      0x00\n      dup2\n      0x00\n      swap1\n      sstore\n      pop\n      0x01\n      add\n      jump(tag_77)\n    tag_78:\n      pop\n      swap1\n      jump\t// out\n        /* \"#utility.yul\":7:146   */\n    tag_80:\n        /* \"#utility.yul\":53:58   */\n      0x00\n        /* \"#utility.yul\":91:97   */\n      dup2\n        /* \"#utility.yul\":78:98   */\n      calldataload\n        /* \"#utility.yul\":69:98   */\n      swap1\n      pop\n        /* \"#utility.yul\":107:140   */\n      tag_82\n        /* \"#utility.yul\":134:139   */\n      dup2\n        /* \"#utility.yul\":107:140   */\n      tag_83\n      jump\t// in\n    tag_82:\n        /* \"#utility.yul\":7:146   */\n      swap3\n      swap2\n      pop\n      pop\n      jump\t// out\n        /* \"#utility.yul\":152:481   */\n    tag_35:\n        /* \"#utility.yul\":211:217   */\n      0x00\n        /* \"#utility.yul\":260:262   */\n      0x20\n        /* \"#utility.yul\":248:257   */\n      dup3\n        /* \"#utility.yul\":239:246   */\n      dup5\n        /* \"#utility.yul\":235:258   */\n      sub\n        /* \"#utility.yul\":231:263   */\n      slt\n        /* \"#utility.yul\":228:347   */\n      iszero\n      tag_85\n      jumpi\n        /* \"#utility.yul\":266:345   */\n      tag_86\n      tag_87\n      jump\t// in\n    tag_86:\n        /* \"#utility.yul\":228:347   */\n    tag_85:\n        /* \"#utility.yul\":386:387   */\n      0x00\n        /* \"#utility.yul\":411:464   */\n      tag_88\n        /* \"#utility.yul\":456:463   */\n      dup5\n        /* \"#utility.yul\":447:453   */\n      dup3\n        /* \"#utility.yul\":436:445   */\n      dup6\n        /* \"#utility.yul\":432:454   */\n      add\n        /* \"#utility.yul\":411:464   */\n      tag_80\n      jump\t// in\n    tag_88:\n        /* \"#utility.yul\":401:464   */\n      swap2\n      pop\n        /* \"#utility.yul\":357:474   */\n      pop\n        /* \"#utility.yul\":152:481   */\n      swap3\n      swap2\n      pop\n      pop\n      jump\t// out\n        /* \"#utility.yul\":487:698   */\n    tag_89:\n        /* \"#utility.yul\":572:582   */\n      0x00\n        /* \"#utility.yul\":593:655   */\n      tag_91\n        /* \"#utility.yul\":651:654   */\n      dup4\n        /* \"#utility.yul\":643:649   */\n      dup4\n        /* \"#utility.yul\":593:655   */\n      tag_92\n      jump\t// in\n    tag_91:\n        /* \"#utility.yul\":687:691   */\n      0x20\n        /* \"#utility.yul\":682:685   */\n      dup4\n        /* \"#utility.yul\":678:692   */\n      add\n        /* \"#utility.yul\":664:692   */\n      swap1\n      pop\n        /* \"#utility.yul\":487:698   */\n      swap3\n      swap2\n      pop\n      pop\n      jump\t// out\n        /* \"#utility.yul\":704:836   */\n    tag_92:\n        /* \"#utility.yul\":797:829   */\n      tag_94\n        /* \"#utility.yul\":823:828   */\n      dup2\n        /* \"#utility.yul\":797:829   */\n      tag_95\n      jump\t// in\n    tag_94:\n        /* \"#utility.yul\":792:795   */\n      dup3\n        /* \"#utility.yul\":785:830   */\n      mstore\n        /* \"#utility.yul\":704:836   */\n      pop\n      pop\n      jump\t// out\n        /* \"#utility.yul\":842:984   */\n    tag_96:\n        /* \"#utility.yul\":945:977   */\n      tag_98\n        /* \"#utility.yul\":971:976   */\n      dup2\n        /* \"#utility.yul\":945:977   */\n      tag_95\n      jump\t// in\n    tag_98:\n        /* \"#utility.yul\":940:943   */\n      dup3\n        /* \"#utility.yul\":933:978   */\n      mstore\n        /* \"#utility.yul\":842:984   */\n      pop\n      pop\n      jump\t// out\n        /* \"#utility.yul\":1036:1832   */\n    tag_99:\n        /* \"#utility.yul\":1171:1174   */\n      0x00\n        /* \"#utility.yul\":1200:1262   */\n      tag_101\n        /* \"#utility.yul\":1256:1261   */\n      dup3\n        /* \"#utility.yul\":1200:1262   */\n      tag_102\n      jump\t// in\n    tag_101:\n        /* \"#utility.yul\":1278:1372   */\n      tag_103\n        /* \"#utility.yul\":1365:1371   */\n      dup2\n        /* \"#utility.yul\":1360:1363   */\n      dup6\n        /* \"#utility.yul\":1278:1372   */\n      tag_104\n      jump\t// in\n    tag_103:\n        /* \"#utility.yul\":1271:1372   */\n      swap4\n      pop\n        /* \"#utility.yul\":1396:1460   */\n      tag_105\n        /* \"#utility.yul\":1454:1459   */\n      dup4\n        /* \"#utility.yul\":1396:1460   */\n      tag_106\n      jump\t// in\n    tag_105:\n        /* \"#utility.yul\":1483:1490   */\n      dup1\n        /* \"#utility.yul\":1514:1515   */\n      0x00\n        /* \"#utility.yul\":1499:1807   */\n    tag_107:\n        /* \"#utility.yul\":1524:1530   */\n      dup4\n        /* \"#utility.yul\":1521:1522   */\n      dup2\n        /* \"#utility.yul\":1518:1531   */\n      lt\n        /* \"#utility.yul\":1499:1807   */\n      iszero\n      tag_109\n      jumpi\n        /* \"#utility.yul\":1600:1606   */\n      dup2\n        /* \"#utility.yul\":1594:1607   */\n      mload\n        /* \"#utility.yul\":1627:1706   */\n      tag_110\n        /* \"#utility.yul\":1702:1705   */\n      dup9\n        /* \"#utility.yul\":1687:1700   */\n      dup3\n        /* \"#utility.yul\":1627:1706   */\n      tag_89\n      jump\t// in\n    tag_110:\n        /* \"#utility.yul\":1620:1706   */\n      swap8\n      pop\n        /* \"#utility.yul\":1729:1797   */\n      tag_111\n        /* \"#utility.yul\":1790:1796   */\n      dup4\n        /* \"#utility.yul\":1729:1797   */\n      tag_112\n      jump\t// in\n    tag_111:\n        /* \"#utility.yul\":1719:1797   */\n      swap3\n      pop\n        /* \"#utility.yul\":1559:1807   */\n      pop\n        /* \"#utility.yul\":1546:1547   */\n      0x01\n        /* \"#utility.yul\":1543:1544   */\n      dup2\n        /* \"#utility.yul\":1539:1548   */\n      add\n        /* \"#utility.yul\":1534:1548   */\n      swap1\n      pop\n        /* \"#utility.yul\":1499:1807   */\n      jump(tag_107)\n    tag_109:\n        /* \"#utility.yul\":1503:1517   */\n      pop\n        /* \"#utility.yul\":1823:1826   */\n      dup6\n        /* \"#utility.yul\":1816:1826   */\n      swap4\n      pop\n        /* \"#utility.yul\":1176:1832   */\n      pop\n      pop\n      pop\n        /* \"#utility.yul\":1036:1832   */\n      swap3\n      swap2\n      pop\n      pop\n      jump\t// out\n        /* \"#utility.yul\":1838:2204   */\n    tag_113:\n        /* \"#utility.yul\":1980:1983   */\n      0x00\n        /* \"#utility.yul\":2001:2068   */\n      tag_115\n        /* \"#utility.yul\":2065:2067   */\n      0x17\n        /* \"#utility.yul\":2060:2063   */\n      dup4\n        /* \"#utility.yul\":2001:2068   */\n      tag_116\n      jump\t// in\n    tag_115:\n        /* \"#utility.yul\":1994:2068   */\n      swap2\n      pop\n        /* \"#utility.yul\":2077:2170   */\n      tag_117\n        /* \"#utility.yul\":2166:2169   */\n      dup3\n        /* \"#utility.yul\":2077:2170   */\n      tag_118\n      jump\t// in\n    tag_117:\n        /* \"#utility.yul\":2195:2197   */\n      0x20\n        /* \"#utility.yul\":2190:2193   */\n      dup3\n        /* \"#utility.yul\":2186:2198   */\n      add\n        /* \"#utility.yul\":2179:2198   */\n      swap1\n      pop\n        /* \"#utility.yul\":1838:2204   */\n      swap2\n      swap1\n      pop\n      jump\t// out\n        /* \"#utility.yul\":2210:2576   */\n    tag_119:\n        /* \"#utility.yul\":2352:2355   */\n      0x00\n        /* \"#utility.yul\":2373:2440   */\n      tag_121\n        /* \"#utility.yul\":2437:2439   */\n      0x23\n        /* \"#utility.yul\":2432:2435   */\n      dup4\n        /* \"#utility.yul\":2373:2440   */\n      tag_116\n      jump\t// in\n    tag_121:\n        /* \"#utility.yul\":2366:2440   */\n      swap2\n      pop\n        /* \"#utility.yul\":2449:2542   */\n      tag_122\n        /* \"#utility.yul\":2538:2541   */\n      dup3\n        /* \"#utility.yul\":2449:2542   */\n      tag_123\n      jump\t// in\n    tag_122:\n        /* \"#utility.yul\":2567:2569   */\n      0x40\n        /* \"#utility.yul\":2562:2565   */\n      dup3\n        /* \"#utility.yul\":2558:2570   */\n      add\n        /* \"#utility.yul\":2551:2570   */\n      swap1\n      pop\n        /* \"#utility.yul\":2210:2576   */\n      swap2\n      swap1\n      pop\n      jump\t// out\n        /* \"#utility.yul\":2582:2948   */\n    tag_124:\n        /* \"#utility.yul\":2724:2727   */\n      0x00\n        /* \"#utility.yul\":2745:2812   */\n      tag_126\n        /* \"#utility.yul\":2809:2811   */\n      0x17\n        /* \"#utility.yul\":2804:2807   */\n      dup4\n        /* \"#utility.yul\":2745:2812   */\n      tag_116\n      jump\t// in\n    tag_126:\n        /* \"#utility.yul\":2738:2812   */\n      swap2\n      pop\n        /* \"#utility.yul\":2821:2914   */\n      tag_127\n        /* \"#utility.yul\":2910:2913   */\n      dup3\n        /* \"#utility.yul\":2821:2914   */\n      tag_128\n      jump\t// in\n    tag_127:\n        /* \"#utility.yul\":2939:2941   */\n      0x20\n        /* \"#utility.yul\":2934:2937   */\n      dup3\n        /* \"#utility.yul\":2930:2942   */\n      add\n        /* \"#utility.yul\":2923:2942   */\n      swap1\n      pop\n        /* \"#utility.yul\":2582:2948   */\n      swap2\n      swap1\n      pop\n      jump\t// out\n        /* \"#utility.yul\":2954:3320   */\n    tag_129:\n        /* \"#utility.yul\":3096:3099   */\n      0x00\n        /* \"#utility.yul\":3117:3184   */\n      tag_131\n        /* \"#utility.yul\":3181:3183   */\n      0x18\n        /* \"#utility.yul\":3176:3179   */\n      dup4\n        /* \"#utility.yul\":3117:3184   */\n      tag_116\n      jump\t// in\n    tag_131:\n        /* \"#utility.yul\":3110:3184   */\n      swap2\n      pop\n        /* \"#utility.yul\":3193:3286   */\n      tag_132\n        /* \"#utility.yul\":3282:3285   */\n      dup3\n        /* \"#utility.yul\":3193:3286   */\n      tag_133\n      jump\t// in\n    tag_132:\n        /* \"#utility.yul\":3311:3313   */\n      0x20\n        /* \"#utility.yul\":3306:3309   */\n      dup3\n        /* \"#utility.yul\":3302:3314   */\n      add\n        /* \"#utility.yul\":3295:3314   */\n      swap1\n      pop\n        /* \"#utility.yul\":2954:3320   */\n      swap2\n      swap1\n      pop\n      jump\t// out\n        /* \"#utility.yul\":3326:3444   */\n    tag_134:\n        /* \"#utility.yul\":3413:3437   */\n      tag_136\n        /* \"#utility.yul\":3431:3436   */\n      dup2\n        /* \"#utility.yul\":3413:3437   */\n      tag_137\n      jump\t// in\n    tag_136:\n        /* \"#utility.yul\":3408:3411   */\n      dup3\n        /* \"#utility.yul\":3401:3438   */\n      mstore\n        /* \"#utility.yul\":3326:3444   */\n      pop\n      pop\n      jump\t// out\n        /* \"#utility.yul\":3450:3607   */\n    tag_138:\n        /* \"#utility.yul\":3555:3600   */\n      tag_140\n        /* \"#utility.yul\":3575:3599   */\n      tag_141\n        /* \"#utility.yul\":3593:3598   */\n      dup3\n        /* \"#utility.yul\":3575:3599   */\n      tag_137\n      jump\t// in\n    tag_141:\n        /* \"#utility.yul\":3555:3600   */\n      tag_142\n      jump\t// in\n    tag_140:\n        /* \"#utility.yul\":3550:3553   */\n      dup3\n        /* \"#utility.yul\":3543:3601   */\n      mstore\n        /* \"#utility.yul\":3450:3607   */\n      pop\n      pop\n      jump\t// out\n        /* \"#utility.yul\":3613:4151   */\n    tag_71:\n        /* \"#utility.yul\":3781:3784   */\n      0x00\n        /* \"#utility.yul\":3796:3871   */\n      tag_144\n        /* \"#utility.yul\":3867:3870   */\n      dup3\n        /* \"#utility.yul\":3858:3864   */\n      dup7\n        /* \"#utility.yul\":3796:3871   */\n      tag_138\n      jump\t// in\n    tag_144:\n        /* \"#utility.yul\":3896:3898   */\n      0x20\n        /* \"#utility.yul\":3891:3894   */\n      dup3\n        /* \"#utility.yul\":3887:3899   */\n      add\n        /* \"#utility.yul\":3880:3899   */\n      swap2\n      pop\n        /* \"#utility.yul\":3909:3984   */\n      tag_145\n        /* \"#utility.yul\":3980:3983   */\n      dup3\n        /* \"#utility.yul\":3971:3977   */\n      dup6\n        /* \"#utility.yul\":3909:3984   */\n      tag_138\n      jump\t// in\n    tag_145:\n        /* \"#utility.yul\":4009:4011   */\n      0x20\n        /* \"#utility.yul\":4004:4007   */\n      dup3\n        /* \"#utility.yul\":4000:4012   */\n      add\n        /* \"#utility.yul\":3993:4012   */\n      swap2\n      pop\n        /* \"#utility.yul\":4022:4097   */\n      tag_146\n        /* \"#utility.yul\":4093:4096   */\n      dup3\n        /* \"#utility.yul\":4084:4090   */\n      dup5\n        /* \"#utility.yul\":4022:4097   */\n      tag_138\n      jump\t// in\n    tag_146:\n        /* \"#utility.yul\":4122:4124   */\n      0x20\n        /* \"#utility.yul\":4117:4120   */\n      dup3\n        /* \"#utility.yul\":4113:4125   */\n      add\n        /* \"#utility.yul\":4106:4125   */\n      swap2\n      pop\n        /* \"#utility.yul\":4142:4145   */\n      dup2\n        /* \"#utility.yul\":4135:4145   */\n      swap1\n      pop\n        /* \"#utility.yul\":3613:4151   */\n      swap5\n      swap4\n      pop\n      pop\n      pop\n      pop\n      jump\t// out\n        /* \"#utility.yul\":4157:4411   */\n    tag_31:\n        /* \"#utility.yul\":4266:4270   */\n      0x00\n        /* \"#utility.yul\":4304:4306   */\n      0x20\n        /* \"#utility.yul\":4293:4302   */\n      dup3\n        /* \"#utility.yul\":4289:4307   */\n      add\n        /* \"#utility.yul\":4281:4307   */\n      swap1\n      pop\n        /* \"#utility.yul\":4317:4404   */\n      tag_148\n        /* \"#utility.yul\":4401:4402   */\n      0x00\n        /* \"#utility.yul\":4390:4399   */\n      dup4\n        /* \"#utility.yul\":4386:4403   */\n      add\n        /* \"#utility.yul\":4377:4383   */\n      dup5\n        /* \"#utility.yul\":4317:4404   */\n      tag_96\n      jump\t// in\n    tag_148:\n        /* \"#utility.yul\":4157:4411   */\n      swap3\n      swap2\n      pop\n      pop\n      jump\t// out\n        /* \"#utility.yul\":4417:4822   */\n    tag_26:\n        /* \"#utility.yul\":4576:4580   */\n      0x00\n        /* \"#utility.yul\":4614:4616   */\n      0x20\n        /* \"#utility.yul\":4603:4612   */\n      dup3\n        /* \"#utility.yul\":4599:4617   */\n      add\n        /* \"#utility.yul\":4591:4617   */\n      swap1\n      pop\n        /* \"#utility.yul\":4663:4672   */\n      dup2\n        /* \"#utility.yul\":4657:4661   */\n      dup2\n        /* \"#utility.yul\":4653:4673   */\n      sub\n        /* \"#utility.yul\":4649:4650   */\n      0x00\n        /* \"#utility.yul\":4638:4647   */\n      dup4\n        /* \"#utility.yul\":4634:4651   */\n      add\n        /* \"#utility.yul\":4627:4674   */\n      mstore\n        /* \"#utility.yul\":4691:4815   */\n      tag_150\n        /* \"#utility.yul\":4810:4814   */\n      dup2\n        /* \"#utility.yul\":4801:4807   */\n      dup5\n        /* \"#utility.yul\":4691:4815   */\n      tag_99\n      jump\t// in\n    tag_150:\n        /* \"#utility.yul\":4683:4815   */\n      swap1\n      pop\n        /* \"#utility.yul\":4417:4822   */\n      swap3\n      swap2\n      pop\n      pop\n      jump\t// out\n        /* \"#utility.yul\":4828:5247   */\n    tag_12:\n        /* \"#utility.yul\":4994:4998   */\n      0x00\n        /* \"#utility.yul\":5032:5034   */\n      0x20\n        /* \"#utility.yul\":5021:5030   */\n      dup3\n        /* \"#utility.yul\":5017:5035   */\n      add\n        /* \"#utility.yul\":5009:5035   */\n      swap1\n      pop\n        /* \"#utility.yul\":5081:5090   */\n      dup2\n        /* \"#utility.yul\":5075:5079   */\n      dup2\n        /* \"#utility.yul\":5071:5091   */\n      sub\n        /* \"#utility.yul\":5067:5068   */\n      0x00\n        /* \"#utility.yul\":5056:5065   */\n      dup4\n        /* \"#utility.yul\":5052:5069   */\n      add\n        /* \"#utility.yul\":5045:5092   */\n      mstore\n        /* \"#utility.yul\":5109:5240   */\n      tag_152\n        /* \"#utility.yul\":5235:5239   */\n      dup2\n        /* \"#utility.yul\":5109:5240   */\n      tag_113\n      jump\t// in\n    tag_152:\n        /* \"#utility.yul\":5101:5240   */\n      swap1\n      pop\n        /* \"#utility.yul\":4828:5247   */\n      swap2\n      swap1\n      pop\n      jump\t// out\n        /* \"#utility.yul\":5253:5672   */\n    tag_41:\n        /* \"#utility.yul\":5419:5423   */\n      0x00\n        /* \"#utility.yul\":5457:5459   */\n      0x20\n        /* \"#utility.yul\":5446:5455   */\n      dup3\n        /* \"#utility.yul\":5442:5460   */\n      add\n        /* \"#utility.yul\":5434:5460   */\n      swap1\n      pop\n        /* \"#utility.yul\":5506:5515   */\n      dup2\n        /* \"#utility.yul\":5500:5504   */\n      dup2\n        /* \"#utility.yul\":5496:5516   */\n      sub\n        /* \"#utility.yul\":5492:5493   */\n      0x00\n        /* \"#utility.yul\":5481:5490   */\n      dup4\n        /* \"#utility.yul\":5477:5494   */\n      add\n        /* \"#utility.yul\":5470:5517   */\n      mstore\n        /* \"#utility.yul\":5534:5665   */\n      tag_154\n        /* \"#utility.yul\":5660:5664   */\n      dup2\n        /* \"#utility.yul\":5534:5665   */\n      tag_119\n      jump\t// in\n    tag_154:\n        /* \"#utility.yul\":5526:5665   */\n      swap1\n      pop\n        /* \"#utility.yul\":5253:5672   */\n      swap2\n      swap1\n      pop\n      jump\t// out\n        /* \"#utility.yul\":5678:6097   */\n    tag_48:\n        /* \"#utility.yul\":5844:5848   */\n      0x00\n        /* \"#utility.yul\":5882:5884   */\n      0x20\n        /* \"#utility.yul\":5871:5880   */\n      dup3\n        /* \"#utility.yul\":5867:5885   */\n      add\n        /* \"#utility.yul\":5859:5885   */\n      swap1\n      pop\n        /* \"#utility.yul\":5931:5940   */\n      dup2\n        /* \"#utility.yul\":5925:5929   */\n      dup2\n        /* \"#utility.yul\":5921:5941   */\n      sub\n        /* \"#utility.yul\":5917:5918   */\n      0x00\n        /* \"#utility.yul\":5906:5915   */\n      dup4\n        /* \"#utility.yul\":5902:5919   */\n      add\n        /* \"#utility.yul\":5895:5942   */\n      mstore\n        /* \"#utility.yul\":5959:6090   */\n      tag_156\n        /* \"#utility.yul\":6085:6089   */\n      dup2\n        /* \"#utility.yul\":5959:6090   */\n      tag_124\n      jump\t// in\n    tag_156:\n        /* \"#utility.yul\":5951:6090   */\n      swap1\n      pop\n        /* \"#utility.yul\":5678:6097   */\n      swap2\n      swap1\n      pop\n      jump\t// out\n        /* \"#utility.yul\":6103:6522   */\n    tag_45:\n        /* \"#utility.yul\":6269:6273   */\n      0x00\n        /* \"#utility.yul\":6307:6309   */\n      0x20\n        /* \"#utility.yul\":6296:6305   */\n      dup3\n        /* \"#utility.yul\":6292:6310   */\n      add\n        /* \"#utility.yul\":6284:6310   */\n      swap1\n      pop\n        /* \"#utility.yul\":6356:6365   */\n      dup2\n        /* \"#utility.yul\":6350:6354   */\n      dup2\n        /* \"#utility.yul\":6346:6366   */\n      sub\n        /* \"#utility.yul\":6342:6343   */\n      0x00\n        /* \"#utility.yul\":6331:6340   */\n      dup4\n        /* \"#utility.yul\":6327:6344   */\n      add\n        /* \"#utility.yul\":6320:6367   */\n      mstore\n        /* \"#utility.yul\":6384:6515   */\n      tag_158\n        /* \"#utility.yul\":6510:6514   */\n      dup2\n        /* \"#utility.yul\":6384:6515   */\n      tag_129\n      jump\t// in\n    tag_158:\n        /* \"#utility.yul\":6376:6515   */\n      swap1\n      pop\n        /* \"#utility.yul\":6103:6522   */\n      swap2\n      swap1\n      pop\n      jump\t// out\n        /* \"#utility.yul\":6528:6750   */\n    tag_18:\n        /* \"#utility.yul\":6621:6625   */\n      0x00\n        /* \"#utility.yul\":6659:6661   */\n      0x20\n        /* \"#utility.yul\":6648:6657   */\n      dup3\n        /* \"#utility.yul\":6644:6662   */\n      add\n        /* \"#utility.yul\":6636:6662   */\n      swap1\n      pop\n        /* \"#utility.yul\":6672:6743   */\n      tag_160\n        /* \"#utility.yul\":6740:6741   */\n      0x00\n        /* \"#utility.yul\":6729:6738   */\n      dup4\n        /* \"#utility.yul\":6725:6742   */\n      add\n        /* \"#utility.yul\":6716:6722   */\n      dup5\n        /* \"#utility.yul\":6672:6743   */\n      tag_134\n      jump\t// in\n    tag_160:\n        /* \"#utility.yul\":6528:6750   */\n      swap3\n      swap2\n      pop\n      pop\n      jump\t// out\n        /* \"#utility.yul\":6837:6977   */\n    tag_106:\n        /* \"#utility.yul\":6912:6916   */\n      0x00\n        /* \"#utility.yul\":6935:6938   */\n      dup2\n        /* \"#utility.yul\":6927:6938   */\n      swap1\n      pop\n        /* \"#utility.yul\":6965:6969   */\n      0x20\n        /* \"#utility.yul\":6960:6963   */\n      dup3\n        /* \"#utility.yul\":6956:6970   */\n      add\n        /* \"#utility.yul\":6948:6970   */\n      swap1\n      pop\n        /* \"#utility.yul\":6837:6977   */\n      swap2\n      swap1\n      pop\n      jump\t// out\n        /* \"#utility.yul\":6983:7105   */\n    tag_102:\n        /* \"#utility.yul\":7058:7064   */\n      0x00\n        /* \"#utility.yul\":7092:7097   */\n      dup2\n        /* \"#utility.yul\":7086:7098   */\n      mload\n        /* \"#utility.yul\":7076:7098   */\n      swap1\n      pop\n        /* \"#utility.yul\":6983:7105   */\n      swap2\n      swap1\n      pop\n      jump\t// out\n        /* \"#utility.yul\":7111:7232   */\n    tag_112:\n        /* \"#utility.yul\":7189:7193   */\n      0x00\n        /* \"#utility.yul\":7221:7225   */\n      0x20\n        /* \"#utility.yul\":7216:7219   */\n      dup3\n        /* \"#utility.yul\":7212:7226   */\n      add\n        /* \"#utility.yul\":7204:7226   */\n      swap1\n      pop\n        /* \"#utility.yul\":7111:7232   */\n      swap2\n      swap1\n      pop\n      jump\t// out\n        /* \"#utility.yul\":7238:7430   */\n    tag_104:\n        /* \"#utility.yul\":7345:7356   */\n      0x00\n        /* \"#utility.yul\":7379:7385   */\n      dup3\n        /* \"#utility.yul\":7374:7377   */\n      dup3\n        /* \"#utility.yul\":7367:7386   */\n      mstore\n        /* \"#utility.yul\":7419:7423   */\n      0x20\n        /* \"#utility.yul\":7414:7417   */\n      dup3\n        /* \"#utility.yul\":7410:7424   */\n      add\n        /* \"#utility.yul\":7395:7424   */\n      swap1\n      pop\n        /* \"#utility.yul\":7238:7430   */\n      swap3\n      swap2\n      pop\n      pop\n      jump\t// out\n        /* \"#utility.yul\":7436:7605   */\n    tag_116:\n        /* \"#utility.yul\":7520:7531   */\n      0x00\n        /* \"#utility.yul\":7554:7560   */\n      dup3\n        /* \"#utility.yul\":7549:7552   */\n      dup3\n        /* \"#utility.yul\":7542:7561   */\n      mstore\n        /* \"#utility.yul\":7594:7598   */\n      0x20\n        /* \"#utility.yul\":7589:7592   */\n      dup3\n        /* \"#utility.yul\":7585:7599   */\n      add\n        /* \"#utility.yul\":7570:7599   */\n      swap1\n      pop\n        /* \"#utility.yul\":7436:7605   */\n      swap3\n      swap2\n      pop\n      pop\n      jump\t// out\n        /* \"#utility.yul\":7611:7715   */\n    tag_95:\n        /* \"#utility.yul\":7656:7663   */\n      0x00\n        /* \"#utility.yul\":7685:7709   */\n      tag_169\n        /* \"#utility.yul\":7703:7708   */\n      dup3\n        /* \"#utility.yul\":7685:7709   */\n      tag_170\n      jump\t// in\n    tag_169:\n        /* \"#utility.yul\":7674:7709   */\n      swap1\n      pop\n        /* \"#utility.yul\":7611:7715   */\n      swap2\n      swap1\n      pop\n      jump\t// out\n        /* \"#utility.yul\":7721:7847   */\n    tag_170:\n        /* \"#utility.yul\":7758:7765   */\n      0x00\n        /* \"#utility.yul\":7798:7840   */\n      0xffffffffffffffffffffffffffffffffffffffff\n        /* \"#utility.yul\":7791:7796   */\n      dup3\n        /* \"#utility.yul\":7787:7841   */\n      and\n        /* \"#utility.yul\":7776:7841   */\n      swap1\n      pop\n        /* \"#utility.yul\":7721:7847   */\n      swap2\n      swap1\n      pop\n      jump\t// out\n        /* \"#utility.yul\":7853:7930   */\n    tag_137:\n        /* \"#utility.yul\":7890:7897   */\n      0x00\n        /* \"#utility.yul\":7919:7924   */\n      dup2\n        /* \"#utility.yul\":7908:7924   */\n      swap1\n      pop\n        /* \"#utility.yul\":7853:7930   */\n      swap2\n      swap1\n      pop\n      jump\t// out\n        /* \"#utility.yul\":7936:8015   */\n    tag_142:\n        /* \"#utility.yul\":7975:7982   */\n      0x00\n        /* \"#utility.yul\":8004:8009   */\n      dup2\n        /* \"#utility.yul\":7993:8009   */\n      swap1\n      pop\n        /* \"#utility.yul\":7936:8015   */\n      swap2\n      swap1\n      pop\n      jump\t// out\n        /* \"#utility.yul\":8021:8197   */\n    tag_52:\n        /* \"#utility.yul\":8053:8054   */\n      0x00\n        /* \"#utility.yul\":8070:8090   */\n      tag_175\n        /* \"#utility.yul\":8088:8089   */\n      dup3\n        /* \"#utility.yul\":8070:8090   */\n      tag_137\n      jump\t// in\n    tag_175:\n        /* \"#utility.yul\":8065:8090   */\n      swap2\n      pop\n        /* \"#utility.yul\":8104:8124   */\n      tag_176\n        /* \"#utility.yul\":8122:8123   */\n      dup4\n        /* \"#utility.yul\":8104:8124   */\n      tag_137\n      jump\t// in\n    tag_176:\n        /* \"#utility.yul\":8099:8124   */\n      swap3\n      pop\n        /* \"#utility.yul\":8143:8144   */\n      dup3\n        /* \"#utility.yul\":8133:8168   */\n      tag_177\n      jumpi\n        /* \"#utility.yul\":8148:8166   */\n      tag_178\n      tag_179\n      jump\t// in\n    tag_178:\n        /* \"#utility.yul\":8133:8168   */\n    tag_177:\n        /* \"#utility.yul\":8189:8190   */\n      dup3\n        /* \"#utility.yul\":8186:8187   */\n      dup3\n        /* \"#utility.yul\":8182:8191   */\n      mod\n        /* \"#utility.yul\":8177:8191   */\n      swap1\n      pop\n        /* \"#utility.yul\":8021:8197   */\n      swap3\n      swap2\n      pop\n      pop\n      jump\t// out\n        /* \"#utility.yul\":8203:8383   */\n    tag_179:\n        /* \"#utility.yul\":8251:8328   */\n      0x4e487b7100000000000000000000000000000000000000000000000000000000\n        /* \"#utility.yul\":8248:8249   */\n      0x00\n        /* \"#utility.yul\":8241:8329   */\n      mstore\n        /* \"#utility.yul\":8348:8352   */\n      0x12\n        /* \"#utility.yul\":8345:8346   */\n      0x04\n        /* \"#utility.yul\":8338:8353   */\n      mstore\n        /* \"#utility.yul\":8372:8376   */\n      0x24\n        /* \"#utility.yul\":8369:8370   */\n      0x00\n        /* \"#utility.yul\":8362:8377   */\n      revert\n        /* \"#utility.yul\":8389:8569   */\n    tag_55:\n        /* \"#utility.yul\":8437:8514   */\n      0x4e487b7100000000000000000000000000000000000000000000000000000000\n        /* \"#utility.yul\":8434:8435   */\n      0x00\n        /* \"#utility.yul\":8427:8515   */\n      mstore\n        /* \"#utility.yul\":8534:8538   */\n      0x32\n        /* \"#utility.yul\":8531:8532   */\n      0x04\n        /* \"#utility.yul\":8524:8539   */\n      mstore\n        /* \"#utility.yul\":8558:8562   */\n      0x24\n        /* \"#utility.yul\":8555:8556   */\n      0x00\n        /* \"#utility.yul\":8548:8563   */\n      revert\n        /* \"#utility.yul\":8575:8755   */\n    tag_62:\n        /* \"#utility.yul\":8623:8700   */\n      0x4e487b7100000000000000000000000000000000000000000000000000000000\n        /* \"#utility.yul\":8620:8621   */\n      0x00\n        /* \"#utility.yul\":8613:8701   */\n      mstore\n        /* \"#utility.yul\":8720:8724   */\n      0x41\n        /* \"#utility.yul\":8717:8718   */\n      0x04\n        /* \"#utility.yul\":8710:8725   */\n      mstore\n        /* \"#utility.yul\":8744:8748   */\n      0x24\n        /* \"#utility.yul\":8741:8742   */\n      0x00\n        /* \"#utility.yul\":8734:8749   */\n      revert\n        /* \"#utility.yul\":8884:9001   */\n    tag_87:\n        /* \"#utility.yul\":8993:8994   */\n      0x00\n        /* \"#utility.yul\":8990:8991   */\n      dup1\n        /* \"#utility.yul\":8983:8995   */\n      revert\n        /* \"#utility.yul\":9007:9180   */\n    tag_118:\n        /* \"#utility.yul\":9147:9172   */\n      0x76616c7565206d6175737420626520312065746865722e000000000000000000\n        /* \"#utility.yul\":9143:9144   */\n      0x00\n        /* \"#utility.yul\":9135:9141   */\n      dup3\n        /* \"#utility.yul\":9131:9145   */\n      add\n        /* \"#utility.yul\":9124:9173   */\n      mstore\n        /* \"#utility.yul\":9007:9180   */\n      pop\n      jump\t// out\n        /* \"#utility.yul\":9186:9408   */\n    tag_123:\n        /* \"#utility.yul\":9326:9360   */\n      0x6f6e6c79206d616e616765722063616e20636865636b207468652062616c616e\n        /* \"#utility.yul\":9322:9323   */\n      0x00\n        /* \"#utility.yul\":9314:9320   */\n      dup3\n        /* \"#utility.yul\":9310:9324   */\n      add\n        /* \"#utility.yul\":9303:9361   */\n      mstore\n        /* \"#utility.yul\":9395:9400   */\n      0x63652e0000000000000000000000000000000000000000000000000000000000\n        /* \"#utility.yul\":9390:9392   */\n      0x20\n        /* \"#utility.yul\":9382:9388   */\n      dup3\n        /* \"#utility.yul\":9378:9393   */\n      add\n        /* \"#utility.yul\":9371:9401   */\n      mstore\n        /* \"#utility.yul\":9186:9408   */\n      pop\n      jump\t// out\n        /* \"#utility.yul\":9414:9587   */\n    tag_128:\n        /* \"#utility.yul\":9554:9579   */\n      0x506c617965727320617265206c657373207468616e2033000000000000000000\n        /* \"#utility.yul\":9550:9551   */\n      0x00\n        /* \"#utility.yul\":9542:9548   */\n      dup3\n        /* \"#utility.yul\":9538:9552   */\n      add\n        /* \"#utility.yul\":9531:9580   */\n      mstore\n        /* \"#utility.yul\":9414:9587   */\n      pop\n      jump\t// out\n        /* \"#utility.yul\":9593:9767   */\n    tag_133:\n        /* \"#utility.yul\":9733:9759   */\n      0x796f7520617265206e6f7420746865206d616e616765722e0000000000000000\n        /* \"#utility.yul\":9729:9730   */\n      0x00\n        /* \"#utility.yul\":9721:9727   */\n      dup3\n        /* \"#utility.yul\":9717:9731   */\n      add\n        /* \"#utility.yul\":9710:9760   */\n      mstore\n        /* \"#utility.yul\":9593:9767   */\n      pop\n      jump\t// out\n        /* \"#utility.yul\":9773:9895   */\n    tag_83:\n        /* \"#utility.yul\":9846:9870   */\n      tag_191\n        /* \"#utility.yul\":9864:9869   */\n      dup2\n        /* \"#utility.yul\":9846:9870   */\n      tag_137\n      jump\t// in\n    tag_191:\n        /* \"#utility.yul\":9839:9844   */\n      dup2\n        /* \"#utility.yul\":9836:9871   */\n      eq\n        /* \"#utility.yul\":9826:9889   */\n      tag_192\n      jumpi\n        /* \"#utility.yul\":9885:9886   */\n      0x00\n        /* \"#utility.yul\":9882:9883   */\n      dup1\n        /* \"#utility.yul\":9875:9887   */\n      revert\n        /* \"#utility.yul\":9826:9889   */\n    tag_192:\n        /* \"#utility.yul\":9773:9895   */\n      pop\n      jump\t// out\n\n    auxdata: 0xa2646970667358221220d92a4804fcebf264ec26016fb123c0e26aec7b25fd43b13cc7a79b463eb3f51564736f6c63430008070033\n}\n",
				"bytecode": {
					"linkReferences": {},
					"object": "608060405234801561001057600080fd5b5033600160006101000a81548173ffffffffffffffffffffffffffffffffffffffff021916908373ffffffffffffffffffffffffffffffffffffffff160217905550610b12806100616000396000f3fe60806040526004361061004e5760003560e01c806312065fe0146101075780635d495aea14610132578063b0ec809414610149578063dfbf53ae14610174578063f71d96cb1461019f57610102565b3661010257670de0b6b3a7640000341461009d576040517f08c379a00000000000000000000000000000000000000000000000000000000081526004016100949061080d565b60405180910390fd5b6000339080600181540180825580915050600190039060005260206000200160009091909190916101000a81548173ffffffffffffffffffffffffffffffffffffffff021916908373ffffffffffffffffffffffffffffffffffffffff160217905550005b600080fd5b34801561011357600080fd5b5061011c6101dc565b604051610129919061088d565b60405180910390f35b34801561013e57600080fd5b50610147610274565b005b34801561015557600080fd5b5061015e6104c0565b60405161016b91906107eb565b60405180910390f35b34801561018057600080fd5b506101896104c5565b60405161019691906107d0565b60405180910390f35b3480156101ab57600080fd5b506101c660048036038101906101c19190610620565b6104eb565b6040516101d391906107d0565b60405180910390f35b6000600160009054906101000a900473ffffffffffffffffffffffffffffffffffffffff1673ffffffffffffffffffffffffffffffffffffffff163373ffffffffffffffffffffffffffffffffffffffff161461026e576040517f08c379a00000000000000000000000000000000000000000000000000000000081526004016102659061082d565b60405180910390fd5b47905090565b600160009054906101000a900473ffffffffffffffffffffffffffffffffffffffff1673ffffffffffffffffffffffffffffffffffffffff163373ffffffffffffffffffffffffffffffffffffffff1614610304576040517f08c379a00000000000000000000000000000000000000000000000000000000081526004016102fb9061086d565b60405180910390fd5b6003600080549050101561034d576040517f08c379a00000000000000000000000000000000000000000000000000000000081526004016103449061084d565b60405180910390fd5b600061035761052a565b9050600080805490508261036b9190610938565b90506000818154811061038157610380610998565b5b9060005260206000200160009054906101000a900473ffffffffffffffffffffffffffffffffffffffff16600260006101000a81548173ffffffffffffffffffffffffffffffffffffffff021916908373ffffffffffffffffffffffffffffffffffffffff160217905550600260009054906101000a900473ffffffffffffffffffffffffffffffffffffffff1673ffffffffffffffffffffffffffffffffffffffff166108fc6104306101dc565b9081150290604051600060405180830381858888f1935050505015801561045b573d6000803e3d6000fd5b50600067ffffffffffffffff811115610477576104766109c7565b5b6040519080825280602002602001820160405280156104a55781602001602082028036833780820191505090505b50600090805190602001906104bb929190610564565b505050565b606090565b600260009054906101000a900473ffffffffffffffffffffffffffffffffffffffff1681565b600081815481106104fb57600080fd5b906000526020600020016000915054906101000a900473ffffffffffffffffffffffffffffffffffffffff1681565b6000444260008054905060405160200161054693929190610793565b6040516020818303038152906040528051906020012060001c905090565b8280548282559060005260206000209081019282156105dd579160200282015b828111156105dc5782518260006101000a81548173ffffffffffffffffffffffffffffffffffffffff021916908373ffffffffffffffffffffffffffffffffffffffff16021790555091602001919060010190610584565b5b5090506105ea91906105ee565b5090565b5b808211156106075760008160009055506001016105ef565b5090565b60008135905061061a81610ac5565b92915050565b600060208284031215610636576106356109f6565b5b60006106448482850161060b565b91505092915050565b60006106598383610665565b60208301905092915050565b61066e816108f2565b82525050565b61067d816108f2565b82525050565b600061068e826108b8565b61069881856108d0565b93506106a3836108a8565b8060005b838110156106d45781516106bb888261064d565b97506106c6836108c3565b9250506001810190506106a7565b5085935050505092915050565b60006106ee6017836108e1565b91506106f9826109fb565b602082019050919050565b60006107116023836108e1565b915061071c82610a24565b604082019050919050565b60006107346017836108e1565b915061073f82610a73565b602082019050919050565b60006107576018836108e1565b915061076282610a9c565b602082019050919050565b61077681610924565b82525050565b61078d61078882610924565b61092e565b82525050565b600061079f828661077c565b6020820191506107af828561077c565b6020820191506107bf828461077c565b602082019150819050949350505050565b60006020820190506107e56000830184610674565b92915050565b600060208201905081810360008301526108058184610683565b905092915050565b60006020820190508181036000830152610826816106e1565b9050919050565b6000602082019050818103600083015261084681610704565b9050919050565b6000602082019050818103600083015261086681610727565b9050919050565b600060208201905081810360008301526108868161074a565b9050919050565b60006020820190506108a2600083018461076d565b92915050565b6000819050602082019050919050565b600081519050919050565b6000602082019050919050565b600082825260208201905092915050565b600082825260208201905092915050565b60006108fd82610904565b9050919050565b600073ffffffffffffffffffffffffffffffffffffffff82169050919050565b6000819050919050565b6000819050919050565b600061094382610924565b915061094e83610924565b92508261095e5761095d610969565b5b828206905092915050565b7f4e487b7100000000000000000000000000000000000000000000000000000000600052601260045260246000fd5b7f4e487b7100000000000000000000000000000000000000000000000000000000600052603260045260246000fd5b7f4e487b7100000000000000000000000000000000000000000000000000000000600052604160045260246000fd5b600080fd5b7f76616c7565206d6175737420626520312065746865722e000000000000000000600082015250565b7f6f6e6c79206d616e616765722063616e20636865636b207468652062616c616e60008201527f63652e0000000000000000000000000000000000000000000000000000000000602082015250565b7f506c617965727320617265206c657373207468616e2033000000000000000000600082015250565b7f796f7520617265206e6f7420746865206d616e616765722e0000000000000000600082015250565b610ace81610924565b8114610ad957600080fd5b5056fea2646970667358221220d92a4804fcebf264ec26016fb123c0e26aec7b25fd43b13cc7a79b463eb3f51564736f6c63430008070033",
					"opcodes": "PUSH1 0x80 PUSH1 0x40 MSTORE CALLVALUE DUP1 ISZERO PUSH2 0x10 JUMPI PUSH1 0x0 DUP1 REVERT JUMPDEST POP CALLER PUSH1 0x1 PUSH1 0x0 PUSH2 0x100 EXP DUP2 SLOAD DUP2 PUSH20 0xFFFFFFFFFFFFFFFFFFFFFFFFFFFFFFFFFFFFFFFF MUL NOT AND SWAP1 DUP4 PUSH20 0xFFFFFFFFFFFFFFFFFFFFFFFFFFFFFFFFFFFFFFFF AND MUL OR SWAP1 SSTORE POP PUSH2 0xB12 DUP1 PUSH2 0x61 PUSH1 0x0 CODECOPY PUSH1 0x0 RETURN INVALID PUSH1 0x80 PUSH1 0x40 MSTORE PUSH1 0x4 CALLDATASIZE LT PUSH2 0x4E JUMPI PUSH1 0x0 CALLDATALOAD PUSH1 0xE0 SHR DUP1 PUSH4 0x12065FE0 EQ PUSH2 0x107 JUMPI DUP1 PUSH4 0x5D495AEA EQ PUSH2 0x132 JUMPI DUP1 PUSH4 0xB0EC8094 EQ PUSH2 0x149 JUMPI DUP1 PUSH4 0xDFBF53AE EQ PUSH2 0x174 JUMPI DUP1 PUSH4 0xF71D96CB EQ PUSH2 0x19F JUMPI PUSH2 0x102 JUMP JUMPDEST CALLDATASIZE PUSH2 0x102 JUMPI PUSH8 0xDE0B6B3A7640000 CALLVALUE EQ PUSH2 0x9D JUMPI PUSH1 0x40 MLOAD PUSH32 0x8C379A000000000000000000000000000000000000000000000000000000000 DUP2 MSTORE PUSH1 0x4 ADD PUSH2 0x94 SWAP1 PUSH2 0x80D JUMP JUMPDEST PUSH1 0x40 MLOAD DUP1 SWAP2 SUB SWAP1 REVERT JUMPDEST PUSH1 0x0 CALLER SWAP1 DUP1 PUSH1 0x1 DUP2 SLOAD ADD DUP1 DUP3 SSTORE DUP1 SWAP2 POP POP PUSH1 0x1 SWAP1 SUB SWAP1 PUSH1 0x0 MSTORE PUSH1 0x20 PUSH1 0x0 KECCAK256 ADD PUSH1 0x0 SWAP1 SWAP2 SWAP1 SWAP2 SWAP1 SWAP2 PUSH2 0x100 EXP DUP2 SLOAD DUP2 PUSH20 0xFFFFFFFFFFFFFFFFFFFFFFFFFFFFFFFFFFFFFFFF MUL NOT AND SWAP1 DUP4 PUSH20 0xFFFFFFFFFFFFFFFFFFFFFFFFFFFFFFFFFFFFFFFF AND MUL OR SWAP1 SSTORE POP STOP JUMPDEST PUSH1 0x0 DUP1 REVERT JUMPDEST CALLVALUE DUP1 ISZERO PUSH2 0x113 JUMPI PUSH1 0x0 DUP1 REVERT JUMPDEST POP PUSH2 0x11C PUSH2 0x1DC JUMP JUMPDEST PUSH1 0x40 MLOAD PUSH2 0x129 SWAP2 SWAP1 PUSH2 0x88D JUMP JUMPDEST PUSH1 0x40 MLOAD DUP1 SWAP2 SUB SWAP1 RETURN JUMPDEST CALLVALUE DUP1 ISZERO PUSH2 0x13E JUMPI PUSH1 0x0 DUP1 REVERT JUMPDEST POP PUSH2 0x147 PUSH2 0x274 JUMP JUMPDEST STOP JUMPDEST CALLVALUE DUP1 ISZERO PUSH2 0x155 JUMPI PUSH1 0x0 DUP1 REVERT JUMPDEST POP PUSH2 0x15E PUSH2 0x4C0 JUMP JUMPDEST PUSH1 0x40 MLOAD PUSH2 0x16B SWAP2 SWAP1 PUSH2 0x7EB JUMP JUMPDEST PUSH1 0x40 MLOAD DUP1 SWAP2 SUB SWAP1 RETURN JUMPDEST CALLVALUE DUP1 ISZERO PUSH2 0x180 JUMPI PUSH1 0x0 DUP1 REVERT JUMPDEST POP PUSH2 0x189 PUSH2 0x4C5 JUMP JUMPDEST PUSH1 0x40 MLOAD PUSH2 0x196 SWAP2 SWAP1 PUSH2 0x7D0 JUMP JUMPDEST PUSH1 0x40 MLOAD DUP1 SWAP2 SUB SWAP1 RETURN JUMPDEST CALLVALUE DUP1 ISZERO PUSH2 0x1AB JUMPI PUSH1 0x0 DUP1 REVERT JUMPDEST POP PUSH2 0x1C6 PUSH1 0x4 DUP1 CALLDATASIZE SUB DUP2 ADD SWAP1 PUSH2 0x1C1 SWAP2 SWAP1 PUSH2 0x620 JUMP JUMPDEST PUSH2 0x4EB JUMP JUMPDEST PUSH1 0x40 MLOAD PUSH2 0x1D3 SWAP2 SWAP1 PUSH2 0x7D0 JUMP JUMPDEST PUSH1 0x40 MLOAD DUP1 SWAP2 SUB SWAP1 RETURN JUMPDEST PUSH1 0x0 PUSH1 0x1 PUSH1 0x0 SWAP1 SLOAD SWAP1 PUSH2 0x100 EXP SWAP1 DIV PUSH20 0xFFFFFFFFFFFFFFFFFFFFFFFFFFFFFFFFFFFFFFFF AND PUSH20 0xFFFFFFFFFFFFFFFFFFFFFFFFFFFFFFFFFFFFFFFF AND CALLER PUSH20 0xFFFFFFFFFFFFFFFFFFFFFFFFFFFFFFFFFFFFFFFF AND EQ PUSH2 0x26E JUMPI PUSH1 0x40 MLOAD PUSH32 0x8C379A000000000000000000000000000000000000000000000000000000000 DUP2 MSTORE PUSH1 0x4 ADD PUSH2 0x265 SWAP1 PUSH2 0x82D JUMP JUMPDEST PUSH1 0x40 MLOAD DUP1 SWAP2 SUB SWAP1 REVERT JUMPDEST SELFBALANCE SWAP1 POP SWAP1 JUMP JUMPDEST PUSH1 0x1 PUSH1 0x0 SWAP1 SLOAD SWAP1 PUSH2 0x100 EXP SWAP1 DIV PUSH20 0xFFFFFFFFFFFFFFFFFFFFFFFFFFFFFFFFFFFFFFFF AND PUSH20 0xFFFFFFFFFFFFFFFFFFFFFFFFFFFFFFFFFFFFFFFF AND CALLER PUSH20 0xFFFFFFFFFFFFFFFFFFFFFFFFFFFFFFFFFFFFFFFF AND EQ PUSH2 0x304 JUMPI PUSH1 0x40 MLOAD PUSH32 0x8C379A000000000000000000000000000000000000000000000000000000000 DUP2 MSTORE PUSH1 0x4 ADD PUSH2 0x2FB SWAP1 PUSH2 0x86D JUMP JUMPDEST PUSH1 0x40 MLOAD DUP1 SWAP2 SUB SWAP1 REVERT JUMPDEST PUSH1 0x3 PUSH1 0x0 DUP1 SLOAD SWAP1 POP LT ISZERO PUSH2 0x34D JUMPI PUSH1 0x40 MLOAD PUSH32 0x8C379A000000000000000000000000000000000000000000000000000000000 DUP2 MSTORE PUSH1 0x4 ADD PUSH2 0x344 SWAP1 PUSH2 0x84D JUMP JUMPDEST PUSH1 0x40 MLOAD DUP1 SWAP2 SUB SWAP1 REVERT JUMPDEST PUSH1 0x0 PUSH2 0x357 PUSH2 0x52A JUMP JUMPDEST SWAP1 POP PUSH1 0x0 DUP1 DUP1 SLOAD SWAP1 POP DUP3 PUSH2 0x36B SWAP2 SWAP1 PUSH2 0x938 JUMP JUMPDEST SWAP1 POP PUSH1 0x0 DUP2 DUP2 SLOAD DUP2 LT PUSH2 0x381 JUMPI PUSH2 0x380 PUSH2 0x998 JUMP JUMPDEST JUMPDEST SWAP1 PUSH1 0x0 MSTORE PUSH1 0x20 PUSH1 0x0 KECCAK256 ADD PUSH1 0x0 SWAP1 SLOAD SWAP1 PUSH2 0x100 EXP SWAP1 DIV PUSH20 0xFFFFFFFFFFFFFFFFFFFFFFFFFFFFFFFFFFFFFFFF AND PUSH1 0x2 PUSH1 0x0 PUSH2 0x100 EXP DUP2 SLOAD DUP2 PUSH20 0xFFFFFFFFFFFFFFFFFFFFFFFFFFFFFFFFFFFFFFFF MUL NOT AND SWAP1 DUP4 PUSH20 0xFFFFFFFFFFFFFFFFFFFFFFFFFFFFFFFFFFFFFFFF AND MUL OR SWAP1 SSTORE POP PUSH1 0x2 PUSH1 0x0 SWAP1 SLOAD SWAP1 PUSH2 0x100 EXP SWAP1 DIV PUSH20 0xFFFFFFFFFFFFFFFFFFFFFFFFFFFFFFFFFFFFFFFF AND PUSH20 0xFFFFFFFFFFFFFFFFFFFFFFFFFFFFFFFFFFFFFFFF AND PUSH2 0x8FC PUSH2 0x430 PUSH2 0x1DC JUMP JUMPDEST SWAP1 DUP2 ISZERO MUL SWAP1 PUSH1 0x40 MLOAD PUSH1 0x0 PUSH1 0x40 MLOAD DUP1 DUP4 SUB DUP2 DUP6 DUP9 DUP9 CALL SWAP4 POP POP POP POP ISZERO DUP1 ISZERO PUSH2 0x45B JUMPI RETURNDATASIZE PUSH1 0x0 DUP1 RETURNDATACOPY RETURNDATASIZE PUSH1 0x0 REVERT JUMPDEST POP PUSH1 0x0 PUSH8 0xFFFFFFFFFFFFFFFF DUP2 GT ISZERO PUSH2 0x477 JUMPI PUSH2 0x476 PUSH2 0x9C7 JUMP JUMPDEST JUMPDEST PUSH1 0x40 MLOAD SWAP1 DUP1 DUP3 MSTORE DUP1 PUSH1 0x20 MUL PUSH1 0x20 ADD DUP3 ADD PUSH1 0x40 MSTORE DUP1 ISZERO PUSH2 0x4A5 JUMPI DUP2 PUSH1 0x20 ADD PUSH1 0x20 DUP3 MUL DUP1 CALLDATASIZE DUP4 CALLDATACOPY DUP1 DUP3 ADD SWAP2 POP POP SWAP1 POP JUMPDEST POP PUSH1 0x0 SWAP1 DUP1 MLOAD SWAP1 PUSH1 0x20 ADD SWAP1 PUSH2 0x4BB SWAP3 SWAP2 SWAP1 PUSH2 0x564 JUMP JUMPDEST POP POP POP JUMP JUMPDEST PUSH1 0x60 SWAP1 JUMP JUMPDEST PUSH1 0x2 PUSH1 0x0 SWAP1 SLOAD SWAP1 PUSH2 0x100 EXP SWAP1 DIV PUSH20 0xFFFFFFFFFFFFFFFFFFFFFFFFFFFFFFFFFFFFFFFF AND DUP2 JUMP JUMPDEST PUSH1 0x0 DUP2 DUP2 SLOAD DUP2 LT PUSH2 0x4FB JUMPI PUSH1 0x0 DUP1 REVERT JUMPDEST SWAP1 PUSH1 0x0 MSTORE PUSH1 0x20 PUSH1 0x0 KECCAK256 ADD PUSH1 0x0 SWAP2 POP SLOAD SWAP1 PUSH2 0x100 EXP SWAP1 DIV PUSH20 0xFFFFFFFFFFFFFFFFFFFFFFFFFFFFFFFFFFFFFFFF AND DUP2 JUMP JUMPDEST PUSH1 0x0 DIFFICULTY TIMESTAMP PUSH1 0x0 DUP1 SLOAD SWAP1 POP PUSH1 0x40 MLOAD PUSH1 0x20 ADD PUSH2 0x546 SWAP4 SWAP3 SWAP2 SWAP1 PUSH2 0x793 JUMP JUMPDEST PUSH1 0x40 MLOAD PUSH1 0x20 DUP2 DUP4 SUB SUB DUP2 MSTORE SWAP1 PUSH1 0x40 MSTORE DUP1 MLOAD SWAP1 PUSH1 0x20 ADD KECCAK256 PUSH1 0x0 SHR SWAP1 POP SWAP1 JUMP JUMPDEST DUP3 DUP1 SLOAD DUP3 DUP3 SSTORE SWAP1 PUSH1 0x0 MSTORE PUSH1 0x20 PUSH1 0x0 KECCAK256 SWAP1 DUP2 ADD SWAP3 DUP3 ISZERO PUSH2 0x5DD JUMPI SWAP2 PUSH1 0x20 MUL DUP3 ADD JUMPDEST DUP3 DUP2 GT ISZERO PUSH2 0x5DC JUMPI DUP3 MLOAD DUP3 PUSH1 0x0 PUSH2 0x100 EXP DUP2 SLOAD DUP2 PUSH20 0xFFFFFFFFFFFFFFFFFFFFFFFFFFFFFFFFFFFFFFFF MUL NOT AND SWAP1 DUP4 PUSH20 0xFFFFFFFFFFFFFFFFFFFFFFFFFFFFFFFFFFFFFFFF AND MUL OR SWAP1 SSTORE POP SWAP2 PUSH1 0x20 ADD SWAP2 SWAP1 PUSH1 0x1 ADD SWAP1 PUSH2 0x584 JUMP JUMPDEST JUMPDEST POP SWAP1 POP PUSH2 0x5EA SWAP2 SWAP1 PUSH2 0x5EE JUMP JUMPDEST POP SWAP1 JUMP JUMPDEST JUMPDEST DUP1 DUP3 GT ISZERO PUSH2 0x607 JUMPI PUSH1 0x0 DUP2 PUSH1 0x0 SWAP1 SSTORE POP PUSH1 0x1 ADD PUSH2 0x5EF JUMP JUMPDEST POP SWAP1 JUMP JUMPDEST PUSH1 0x0 DUP2 CALLDATALOAD SWAP1 POP PUSH2 0x61A DUP2 PUSH2 0xAC5 JUMP JUMPDEST SWAP3 SWAP2 POP POP JUMP JUMPDEST PUSH1 0x0 PUSH1 0x20 DUP3 DUP5 SUB SLT ISZERO PUSH2 0x636 JUMPI PUSH2 0x635 PUSH2 0x9F6 JUMP JUMPDEST JUMPDEST PUSH1 0x0 PUSH2 0x644 DUP5 DUP3 DUP6 ADD PUSH2 0x60B JUMP JUMPDEST SWAP2 POP POP SWAP3 SWAP2 POP POP JUMP JUMPDEST PUSH1 0x0 PUSH2 0x659 DUP4 DUP4 PUSH2 0x665 JUMP JUMPDEST PUSH1 0x20 DUP4 ADD SWAP1 POP SWAP3 SWAP2 POP POP JUMP JUMPDEST PUSH2 0x66E DUP2 PUSH2 0x8F2 JUMP JUMPDEST DUP3 MSTORE POP POP JUMP JUMPDEST PUSH2 0x67D DUP2 PUSH2 0x8F2 JUMP JUMPDEST DUP3 MSTORE POP POP JUMP JUMPDEST PUSH1 0x0 PUSH2 0x68E DUP3 PUSH2 0x8B8 JUMP JUMPDEST PUSH2 0x698 DUP2 DUP6 PUSH2 0x8D0 JUMP JUMPDEST SWAP4 POP PUSH2 0x6A3 DUP4 PUSH2 0x8A8 JUMP JUMPDEST DUP1 PUSH1 0x0 JUMPDEST DUP4 DUP2 LT ISZERO PUSH2 0x6D4 JUMPI DUP2 MLOAD PUSH2 0x6BB DUP9 DUP3 PUSH2 0x64D JUMP JUMPDEST SWAP8 POP PUSH2 0x6C6 DUP4 PUSH2 0x8C3 JUMP JUMPDEST SWAP3 POP POP PUSH1 0x1 DUP2 ADD SWAP1 POP PUSH2 0x6A7 JUMP JUMPDEST POP DUP6 SWAP4 POP POP POP POP SWAP3 SWAP2 POP POP JUMP JUMPDEST PUSH1 0x0 PUSH2 0x6EE PUSH1 0x17 DUP4 PUSH2 0x8E1 JUMP JUMPDEST SWAP2 POP PUSH2 0x6F9 DUP3 PUSH2 0x9FB JUMP JUMPDEST PUSH1 0x20 DUP3 ADD SWAP1 POP SWAP2 SWAP1 POP JUMP JUMPDEST PUSH1 0x0 PUSH2 0x711 PUSH1 0x23 DUP4 PUSH2 0x8E1 JUMP JUMPDEST SWAP2 POP PUSH2 0x71C DUP3 PUSH2 0xA24 JUMP JUMPDEST PUSH1 0x40 DUP3 ADD SWAP1 POP SWAP2 SWAP1 POP JUMP JUMPDEST PUSH1 0x0 PUSH2 0x734 PUSH1 0x17 DUP4 PUSH2 0x8E1 JUMP JUMPDEST SWAP2 POP PUSH2 0x73F DUP3 PUSH2 0xA73 JUMP JUMPDEST PUSH1 0x20 DUP3 ADD SWAP1 POP SWAP2 SWAP1 POP JUMP JUMPDEST PUSH1 0x0 PUSH2 0x757 PUSH1 0x18 DUP4 PUSH2 0x8E1 JUMP JUMPDEST SWAP2 POP PUSH2 0x762 DUP3 PUSH2 0xA9C JUMP JUMPDEST PUSH1 0x20 DUP3 ADD SWAP1 POP SWAP2 SWAP1 POP JUMP JUMPDEST PUSH2 0x776 DUP2 PUSH2 0x924 JUMP JUMPDEST DUP3 MSTORE POP POP JUMP JUMPDEST PUSH2 0x78D PUSH2 0x788 DUP3 PUSH2 0x924 JUMP JUMPDEST PUSH2 0x92E JUMP JUMPDEST DUP3 MSTORE POP POP JUMP JUMPDEST PUSH1 0x0 PUSH2 0x79F DUP3 DUP7 PUSH2 0x77C JUMP JUMPDEST PUSH1 0x20 DUP3 ADD SWAP2 POP PUSH2 0x7AF DUP3 DUP6 PUSH2 0x77C JUMP JUMPDEST PUSH1 0x20 DUP3 ADD SWAP2 POP PUSH2 0x7BF DUP3 DUP5 PUSH2 0x77C JUMP JUMPDEST PUSH1 0x20 DUP3 ADD SWAP2 POP DUP2 SWAP1 POP SWAP5 SWAP4 POP POP POP POP JUMP JUMPDEST PUSH1 0x0 PUSH1 0x20 DUP3 ADD SWAP1 POP PUSH2 0x7E5 PUSH1 0x0 DUP4 ADD DUP5 PUSH2 0x674 JUMP JUMPDEST SWAP3 SWAP2 POP POP JUMP JUMPDEST PUSH1 0x0 PUSH1 0x20 DUP3 ADD SWAP1 POP DUP2 DUP2 SUB PUSH1 0x0 DUP4 ADD MSTORE PUSH2 0x805 DUP2 DUP5 PUSH2 0x683 JUMP JUMPDEST SWAP1 POP SWAP3 SWAP2 POP POP JUMP JUMPDEST PUSH1 0x0 PUSH1 0x20 DUP3 ADD SWAP1 POP DUP2 DUP2 SUB PUSH1 0x0 DUP4 ADD MSTORE PUSH2 0x826 DUP2 PUSH2 0x6E1 JUMP JUMPDEST SWAP1 POP SWAP2 SWAP1 POP JUMP JUMPDEST PUSH1 0x0 PUSH1 0x20 DUP3 ADD SWAP1 POP DUP2 DUP2 SUB PUSH1 0x0 DUP4 ADD MSTORE PUSH2 0x846 DUP2 PUSH2 0x704 JUMP JUMPDEST SWAP1 POP SWAP2 SWAP1 POP JUMP JUMPDEST PUSH1 0x0 PUSH1 0x20 DUP3 ADD SWAP1 POP DUP2 DUP2 SUB PUSH1 0x0 DUP4 ADD MSTORE PUSH2 0x866 DUP2 PUSH2 0x727 JUMP JUMPDEST SWAP1 POP SWAP2 SWAP1 POP JUMP JUMPDEST PUSH1 0x0 PUSH1 0x20 DUP3 ADD SWAP1 POP DUP2 DUP2 SUB PUSH1 0x0 DUP4 ADD MSTORE PUSH2 0x886 DUP2 PUSH2 0x74A JUMP JUMPDEST SWAP1 POP SWAP2 SWAP1 POP JUMP JUMPDEST PUSH1 0x0 PUSH1 0x20 DUP3 ADD SWAP1 POP PUSH2 0x8A2 PUSH1 0x0 DUP4 ADD DUP5 PUSH2 0x76D JUMP JUMPDEST SWAP3 SWAP2 POP POP JUMP JUMPDEST PUSH1 0x0 DUP2 SWAP1 POP PUSH1 0x20 DUP3 ADD SWAP1 POP SWAP2 SWAP1 POP JUMP JUMPDEST PUSH1 0x0 DUP2 MLOAD SWAP1 POP SWAP2 SWAP1 POP JUMP JUMPDEST PUSH1 0x0 PUSH1 0x20 DUP3 ADD SWAP1 POP SWAP2 SWAP1 POP JUMP JUMPDEST PUSH1 0x0 DUP3 DUP3 MSTORE PUSH1 0x20 DUP3 ADD SWAP1 POP SWAP3 SWAP2 POP POP JUMP JUMPDEST PUSH1 0x0 DUP3 DUP3 MSTORE PUSH1 0x20 DUP3 ADD SWAP1 POP SWAP3 SWAP2 POP POP JUMP JUMPDEST PUSH1 0x0 PUSH2 0x8FD DUP3 PUSH2 0x904 JUMP JUMPDEST SWAP1 POP SWAP2 SWAP1 POP JUMP JUMPDEST PUSH1 0x0 PUSH20 0xFFFFFFFFFFFFFFFFFFFFFFFFFFFFFFFFFFFFFFFF DUP3 AND SWAP1 POP SWAP2 SWAP1 POP JUMP JUMPDEST PUSH1 0x0 DUP2 SWAP1 POP SWAP2 SWAP1 POP JUMP JUMPDEST PUSH1 0x0 DUP2 SWAP1 POP SWAP2 SWAP1 POP JUMP JUMPDEST PUSH1 0x0 PUSH2 0x943 DUP3 PUSH2 0x924 JUMP JUMPDEST SWAP2 POP PUSH2 0x94E DUP4 PUSH2 0x924 JUMP JUMPDEST SWAP3 POP DUP3 PUSH2 0x95E JUMPI PUSH2 0x95D PUSH2 0x969 JUMP JUMPDEST JUMPDEST DUP3 DUP3 MOD SWAP1 POP SWAP3 SWAP2 POP POP JUMP JUMPDEST PUSH32 0x4E487B7100000000000000000000000000000000000000000000000000000000 PUSH1 0x0 MSTORE PUSH1 0x12 PUSH1 0x4 MSTORE PUSH1 0x24 PUSH1 0x0 REVERT JUMPDEST PUSH32 0x4E487B7100000000000000000000000000000000000000000000000000000000 PUSH1 0x0 MSTORE PUSH1 0x32 PUSH1 0x4 MSTORE PUSH1 0x24 PUSH1 0x0 REVERT JUMPDEST PUSH32 0x4E487B7100000000000000000000000000000000000000000000000000000000 PUSH1 0x0 MSTORE PUSH1 0x41 PUSH1 0x4 MSTORE PUSH1 0x24 PUSH1 0x0 REVERT JUMPDEST PUSH1 0x0 DUP1 REVERT JUMPDEST PUSH32 0x76616C7565206D6175737420626520312065746865722E000000000000000000 PUSH1 0x0 DUP3 ADD MSTORE POP JUMP JUMPDEST PUSH32 0x6F6E6C79206D616E616765722063616E20636865636B207468652062616C616E PUSH1 0x0 DUP3 ADD MSTORE PUSH32 0x63652E0000000000000000000000000000000000000000000000000000000000 PUSH1 0x20 DUP3 ADD MSTORE POP JUMP JUMPDEST PUSH32 0x506C617965727320617265206C657373207468616E2033000000000000000000 PUSH1 0x0 DUP3 ADD MSTORE POP JUMP JUMPDEST PUSH32 0x796F7520617265206E6F7420746865206D616E616765722E0000000000000000 PUSH1 0x0 DUP3 ADD MSTORE POP JUMP JUMPDEST PUSH2 0xACE DUP2 PUSH2 0x924 JUMP JUMPDEST DUP2 EQ PUSH2 0xAD9 JUMPI PUSH1 0x0 DUP1 REVERT JUMPDEST POP JUMP INVALID LOG2 PUSH5 0x6970667358 0x22 SLT KECCAK256 0xD9 0x2A BASEFEE DIV 0xFC 0xEB CALLCODE PUSH5 0xEC26016FB1 0x23 0xC0 0xE2 PUSH11 0xEC7B25FD43B13CC7A79B46 RETURNDATACOPY 0xB3 CREATE2 ISZERO PUSH5 0x736F6C6343 STOP ADDMOD SMOD STOP CALLER "
				},
				"gasEstimates": {
					"creation": {
						"codeDepositCost": "566800",
						"executionCost": "24866",
						"totalCost": "591666"
					},
					"external": {
						"allPlayers()": "infinite",
						"getBalance()": "2602",
						"pickWinner()": "infinite",
						"players(uint256)": "5022",
						"winner()": "2558"
					},
					"internal": {
						"random()": "infinite"
					}
				},
				"methodIdentifiers": {
					"allPlayers()": "b0ec8094",
					"getBalance()": "12065fe0",
					"pickWinner()": "5d495aea",
					"players(uint256)": "f71d96cb",
					"winner()": "dfbf53ae"
				}
			},
			"storageLayout": {
				"storage": [
					{
						"astId": 4,
						"contract": "contracts/Lottery.sol:Lottery",
						"label": "players",
						"offset": 0,
						"slot": "0",
						"type": "t_array(t_address_payable)dyn_storage"
					},
					{
						"astId": 6,
						"contract": "contracts/Lottery.sol:Lottery",
						"label": "manager",
						"offset": 0,
						"slot": "1",
						"type": "t_address"
					},
					{
						"astId": 8,
						"contract": "contracts/Lottery.sol:Lottery",
						"label": "winner",
						"offset": 0,
						"slot": "2",
						"type": "t_address_payable"
					}
				],
				"types": {
					"t_address": {
						"encoding": "inplace",
						"label": "address",
						"numberOfBytes": "20"
					},
					"t_address_payable": {
						"encoding": "inplace",
						"label": "address payable",
						"numberOfBytes": "20"
					},
					"t_array(t_address_payable)dyn_storage": {
						"base": "t_address_payable",
						"encoding": "dynamic_array",
						"label": "address payable[]",
						"numberOfBytes": "32"
					}
				}
			},
			"userdoc": {
				"kind": "user",
				"methods": {},
				"version": 1
			}
		}
	}
}