{
	"contracts/Lottery.sol": {
		"Lottery": {
			"abi": [
				{
					"inputs": [],
					"stateMutability": "nonpayable",
					"type": "constructor"
				},
				{
					"inputs": [],
					"name": "getBalance",
					"outputs": [
						{
							"internalType": "uint256",
							"name": "",
							"type": "uint256"
						}
					],
					"stateMutability": "view",
					"type": "function"
				},
				{
					"inputs": [
						{
							"internalType": "uint256",
							"name": "",
							"type": "uint256"
						}
					],
					"name": "players",
					"outputs": [
						{
							"internalType": "address payable",
							"name": "",
							"type": "address"
						}
					],
					"stateMutability": "view",
					"type": "function"
				},
				{
					"inputs": [],
					"name": "winner",
					"outputs": [
						{
							"internalType": "address payable",
							"name": "",
							"type": "address"
						}
					],
					"stateMutability": "view",
					"type": "function"
				},
				{
					"stateMutability": "payable",
					"type": "receive"
				}
			],
			"devdoc": {
				"kind": "dev",
				"methods": {},
				"version": 1
			},
			"evm": {
				"assembly": "    /* \"contracts/Lottery.sol\":57:710  contract Lottery {... */\n  mstore(0x40, 0x80)\n    /* \"contracts/Lottery.sol\":175:226  constructor (){... */\n  callvalue\n  dup1\n  iszero\n  tag_1\n  jumpi\n  0x00\n  dup1\n  revert\ntag_1:\n  pop\n    /* \"contracts/Lottery.sol\":209:219  msg.sender */\n  caller\n    /* \"contracts/Lottery.sol\":199:206  manager */\n  0x01\n  0x00\n    /* \"contracts/Lottery.sol\":199:219  manager = msg.sender */\n  0x0100\n  exp\n  dup2\n  sload\n  dup2\n  0xffffffffffffffffffffffffffffffffffffffff\n  mul\n  not\n  and\n  swap1\n  dup4\n  0xffffffffffffffffffffffffffffffffffffffff\n  and\n  mul\n  or\n  swap1\n  sstore\n  pop\n    /* \"contracts/Lottery.sol\":57:710  contract Lottery {... */\n  dataSize(sub_0)\n  dup1\n  dataOffset(sub_0)\n  0x00\n  codecopy\n  0x00\n  return\nstop\n\nsub_0: assembly {\n        /* \"contracts/Lottery.sol\":57:710  contract Lottery {... */\n      mstore(0x40, 0x80)\n      jumpi(tag_1, lt(calldatasize, 0x04))\n      shr(0xe0, calldataload(0x00))\n      dup1\n      0x12065fe0\n      eq\n      tag_3\n      jumpi\n      dup1\n      0xdfbf53ae\n      eq\n      tag_4\n      jumpi\n      dup1\n      0xf71d96cb\n      eq\n      tag_5\n      jumpi\n      jump(tag_2)\n    tag_1:\n      jumpi(tag_2, calldatasize)\n        /* \"contracts/Lottery.sol\":290:297  1 ether */\n      0x0de0b6b3a7640000\n        /* \"contracts/Lottery.sol\":277:286  msg.value */\n      callvalue\n        /* \"contracts/Lottery.sol\":277:297  msg.value == 1 ether */\n      eq\n        /* \"contracts/Lottery.sol\":269:325  require(msg.value == 1 ether , \"value maust be 1 ether\") */\n      tag_8\n      jumpi\n      mload(0x40)\n      0x08c379a000000000000000000000000000000000000000000000000000000000\n      dup2\n      mstore\n      0x04\n      add\n      tag_9\n      swap1\n      tag_10\n      jump\t// in\n    tag_9:\n      mload(0x40)\n      dup1\n      swap2\n      sub\n      swap1\n      revert\n    tag_8:\n        /* \"contracts/Lottery.sol\":335:342  players */\n      0x00\n        /* \"contracts/Lottery.sol\":356:366  msg.sender */\n      caller\n        /* \"contracts/Lottery.sol\":335:368  players.push(payable(msg.sender)) */\n      swap1\n      dup1\n      0x01\n      dup2\n      sload\n      add\n      dup1\n      dup3\n      sstore\n      dup1\n      swap2\n      pop\n      pop\n      0x01\n      swap1\n      sub\n      swap1\n      0x00\n      mstore\n      keccak256(0x00, 0x20)\n      add\n      0x00\n      swap1\n      swap2\n      swap1\n      swap2\n      swap1\n      swap2\n      0x0100\n      exp\n      dup2\n      sload\n      dup2\n      0xffffffffffffffffffffffffffffffffffffffff\n      mul\n      not\n      and\n      swap1\n      dup4\n      0xffffffffffffffffffffffffffffffffffffffff\n      and\n      mul\n      or\n      swap1\n      sstore\n      pop\n        /* \"contracts/Lottery.sol\":57:710  contract Lottery {... */\n      stop\n    tag_2:\n      0x00\n      dup1\n      revert\n        /* \"contracts/Lottery.sol\":381:552  function getBalance() public view returns(uint){... */\n    tag_3:\n      callvalue\n      dup1\n      iszero\n      tag_12\n      jumpi\n      0x00\n      dup1\n      revert\n    tag_12:\n      pop\n      tag_13\n      tag_14\n      jump\t// in\n    tag_13:\n      mload(0x40)\n      tag_15\n      swap2\n      swap1\n      tag_16\n      jump\t// in\n    tag_15:\n      mload(0x40)\n      dup1\n      swap2\n      sub\n      swap1\n      return\n        /* \"contracts/Lottery.sol\":139:168  address payable public winner */\n    tag_4:\n      callvalue\n      dup1\n      iszero\n      tag_17\n      jumpi\n      0x00\n      dup1\n      revert\n    tag_17:\n      pop\n      tag_18\n      tag_19\n      jump\t// in\n    tag_18:\n      mload(0x40)\n      tag_20\n      swap2\n      swap1\n      tag_21\n      jump\t// in\n    tag_20:\n      mload(0x40)\n      dup1\n      swap2\n      sub\n      swap1\n      return\n        /* \"contracts/Lottery.sol\":80:112  address payable[] public players */\n    tag_5:\n      callvalue\n      dup1\n      iszero\n      tag_22\n      jumpi\n      0x00\n      dup1\n      revert\n    tag_22:\n      pop\n      tag_23\n      0x04\n      dup1\n      calldatasize\n      sub\n      dup2\n      add\n      swap1\n      tag_24\n      swap2\n      swap1\n      tag_25\n      jump\t// in\n    tag_24:\n      tag_26\n      jump\t// in\n    tag_23:\n      mload(0x40)\n      tag_27\n      swap2\n      swap1\n      tag_21\n      jump\t// in\n    tag_27:\n      mload(0x40)\n      dup1\n      swap2\n      sub\n      swap1\n      return\n        /* \"contracts/Lottery.sol\":381:552  function getBalance() public view returns(uint){... */\n    tag_14:\n        /* \"contracts/Lottery.sol\":423:427  uint */\n      0x00\n        /* \"contracts/Lottery.sol\":460:467  manager */\n      0x01\n      0x00\n      swap1\n      sload\n      swap1\n      0x0100\n      exp\n      swap1\n      div\n      0xffffffffffffffffffffffffffffffffffffffff\n      and\n        /* \"contracts/Lottery.sol\":446:467  msg.sender == manager */\n      0xffffffffffffffffffffffffffffffffffffffff\n      and\n        /* \"contracts/Lottery.sol\":446:456  msg.sender */\n      caller\n        /* \"contracts/Lottery.sol\":446:467  msg.sender == manager */\n      0xffffffffffffffffffffffffffffffffffffffff\n      and\n      eq\n        /* \"contracts/Lottery.sol\":438:507  require(msg.sender == manager , \"only manager can check the balance\") */\n      tag_29\n      jumpi\n      mload(0x40)\n      0x08c379a000000000000000000000000000000000000000000000000000000000\n      dup2\n      mstore\n      0x04\n      add\n      tag_30\n      swap1\n      tag_31\n      jump\t// in\n    tag_30:\n      mload(0x40)\n      dup1\n      swap2\n      sub\n      swap1\n      revert\n    tag_29:\n        /* \"contracts/Lottery.sol\":524:545  address(this).balance */\n      selfbalance\n        /* \"contracts/Lottery.sol\":517:545  return address(this).balance */\n      swap1\n      pop\n        /* \"contracts/Lottery.sol\":381:552  function getBalance() public view returns(uint){... */\n      swap1\n      jump\t// out\n        /* \"contracts/Lottery.sol\":139:168  address payable public winner */\n    tag_19:\n      0x02\n      0x00\n      swap1\n      sload\n      swap1\n      0x0100\n      exp\n      swap1\n      div\n      0xffffffffffffffffffffffffffffffffffffffff\n      and\n      dup2\n      jump\t// out\n        /* \"contracts/Lottery.sol\":80:112  address payable[] public players */\n    tag_26:\n      0x00\n      dup2\n      dup2\n      sload\n      dup2\n      lt\n      tag_32\n      jumpi\n      0x00\n      dup1\n      revert\n    tag_32:\n      swap1\n      0x00\n      mstore\n      keccak256(0x00, 0x20)\n      add\n      0x00\n      swap2\n      pop\n      sload\n      swap1\n      0x0100\n      exp\n      swap1\n      div\n      0xffffffffffffffffffffffffffffffffffffffff\n      and\n      dup2\n      jump\t// out\n        /* \"#utility.yul\":7:146   */\n    tag_35:\n        /* \"#utility.yul\":53:58   */\n      0x00\n        /* \"#utility.yul\":91:97   */\n      dup2\n        /* \"#utility.yul\":78:98   */\n      calldataload\n        /* \"#utility.yul\":69:98   */\n      swap1\n      pop\n        /* \"#utility.yul\":107:140   */\n      tag_37\n        /* \"#utility.yul\":134:139   */\n      dup2\n        /* \"#utility.yul\":107:140   */\n      tag_38\n      jump\t// in\n    tag_37:\n        /* \"#utility.yul\":7:146   */\n      swap3\n      swap2\n      pop\n      pop\n      jump\t// out\n        /* \"#utility.yul\":152:481   */\n    tag_25:\n        /* \"#utility.yul\":211:217   */\n      0x00\n        /* \"#utility.yul\":260:262   */\n      0x20\n        /* \"#utility.yul\":248:257   */\n      dup3\n        /* \"#utility.yul\":239:246   */\n      dup5\n        /* \"#utility.yul\":235:258   */\n      sub\n        /* \"#utility.yul\":231:263   */\n      slt\n        /* \"#utility.yul\":228:347   */\n      iszero\n      tag_40\n      jumpi\n        /* \"#utility.yul\":266:345   */\n      tag_41\n      tag_42\n      jump\t// in\n    tag_41:\n        /* \"#utility.yul\":228:347   */\n    tag_40:\n        /* \"#utility.yul\":386:387   */\n      0x00\n        /* \"#utility.yul\":411:464   */\n      tag_43\n        /* \"#utility.yul\":456:463   */\n      dup5\n        /* \"#utility.yul\":447:453   */\n      dup3\n        /* \"#utility.yul\":436:445   */\n      dup6\n        /* \"#utility.yul\":432:454   */\n      add\n        /* \"#utility.yul\":411:464   */\n      tag_35\n      jump\t// in\n    tag_43:\n        /* \"#utility.yul\":401:464   */\n      swap2\n      pop\n        /* \"#utility.yul\":357:474   */\n      pop\n        /* \"#utility.yul\":152:481   */\n      swap3\n      swap2\n      pop\n      pop\n      jump\t// out\n        /* \"#utility.yul\":487:629   */\n    tag_44:\n        /* \"#utility.yul\":590:622   */\n      tag_46\n        /* \"#utility.yul\":616:621   */\n      dup2\n        /* \"#utility.yul\":590:622   */\n      tag_47\n      jump\t// in\n    tag_46:\n        /* \"#utility.yul\":585:588   */\n      dup3\n        /* \"#utility.yul\":578:623   */\n      mstore\n        /* \"#utility.yul\":487:629   */\n      pop\n      pop\n      jump\t// out\n        /* \"#utility.yul\":635:1001   */\n    tag_48:\n        /* \"#utility.yul\":777:780   */\n      0x00\n        /* \"#utility.yul\":798:865   */\n      tag_50\n        /* \"#utility.yul\":862:864   */\n      0x16\n        /* \"#utility.yul\":857:860   */\n      dup4\n        /* \"#utility.yul\":798:865   */\n      tag_51\n      jump\t// in\n    tag_50:\n        /* \"#utility.yul\":791:865   */\n      swap2\n      pop\n        /* \"#utility.yul\":874:967   */\n      tag_52\n        /* \"#utility.yul\":963:966   */\n      dup3\n        /* \"#utility.yul\":874:967   */\n      tag_53\n      jump\t// in\n    tag_52:\n        /* \"#utility.yul\":992:994   */\n      0x20\n        /* \"#utility.yul\":987:990   */\n      dup3\n        /* \"#utility.yul\":983:995   */\n      add\n        /* \"#utility.yul\":976:995   */\n      swap1\n      pop\n        /* \"#utility.yul\":635:1001   */\n      swap2\n      swap1\n      pop\n      jump\t// out\n        /* \"#utility.yul\":1007:1373   */\n    tag_54:\n        /* \"#utility.yul\":1149:1152   */\n      0x00\n        /* \"#utility.yul\":1170:1237   */\n      tag_56\n        /* \"#utility.yul\":1234:1236   */\n      0x22\n        /* \"#utility.yul\":1229:1232   */\n      dup4\n        /* \"#utility.yul\":1170:1237   */\n      tag_51\n      jump\t// in\n    tag_56:\n        /* \"#utility.yul\":1163:1237   */\n      swap2\n      pop\n        /* \"#utility.yul\":1246:1339   */\n      tag_57\n        /* \"#utility.yul\":1335:1338   */\n      dup3\n        /* \"#utility.yul\":1246:1339   */\n      tag_58\n      jump\t// in\n    tag_57:\n        /* \"#utility.yul\":1364:1366   */\n      0x40\n        /* \"#utility.yul\":1359:1362   */\n      dup3\n        /* \"#utility.yul\":1355:1367   */\n      add\n        /* \"#utility.yul\":1348:1367   */\n      swap1\n      pop\n        /* \"#utility.yul\":1007:1373   */\n      swap2\n      swap1\n      pop\n      jump\t// out\n        /* \"#utility.yul\":1379:1497   */\n    tag_59:\n        /* \"#utility.yul\":1466:1490   */\n      tag_61\n        /* \"#utility.yul\":1484:1489   */\n      dup2\n        /* \"#utility.yul\":1466:1490   */\n      tag_62\n      jump\t// in\n    tag_61:\n        /* \"#utility.yul\":1461:1464   */\n      dup3\n        /* \"#utility.yul\":1454:1491   */\n      mstore\n        /* \"#utility.yul\":1379:1497   */\n      pop\n      pop\n      jump\t// out\n        /* \"#utility.yul\":1503:1757   */\n    tag_21:\n        /* \"#utility.yul\":1612:1616   */\n      0x00\n        /* \"#utility.yul\":1650:1652   */\n      0x20\n        /* \"#utility.yul\":1639:1648   */\n      dup3\n        /* \"#utility.yul\":1635:1653   */\n      add\n        /* \"#utility.yul\":1627:1653   */\n      swap1\n      pop\n        /* \"#utility.yul\":1663:1750   */\n      tag_64\n        /* \"#utility.yul\":1747:1748   */\n      0x00\n        /* \"#utility.yul\":1736:1745   */\n      dup4\n        /* \"#utility.yul\":1732:1749   */\n      add\n        /* \"#utility.yul\":1723:1729   */\n      dup5\n        /* \"#utility.yul\":1663:1750   */\n      tag_44\n      jump\t// in\n    tag_64:\n        /* \"#utility.yul\":1503:1757   */\n      swap3\n      swap2\n      pop\n      pop\n      jump\t// out\n        /* \"#utility.yul\":1763:2182   */\n    tag_10:\n        /* \"#utility.yul\":1929:1933   */\n      0x00\n        /* \"#utility.yul\":1967:1969   */\n      0x20\n        /* \"#utility.yul\":1956:1965   */\n      dup3\n        /* \"#utility.yul\":1952:1970   */\n      add\n        /* \"#utility.yul\":1944:1970   */\n      swap1\n      pop\n        /* \"#utility.yul\":2016:2025   */\n      dup2\n        /* \"#utility.yul\":2010:2014   */\n      dup2\n        /* \"#utility.yul\":2006:2026   */\n      sub\n        /* \"#utility.yul\":2002:2003   */\n      0x00\n        /* \"#utility.yul\":1991:2000   */\n      dup4\n        /* \"#utility.yul\":1987:2004   */\n      add\n        /* \"#utility.yul\":1980:2027   */\n      mstore\n        /* \"#utility.yul\":2044:2175   */\n      tag_66\n        /* \"#utility.yul\":2170:2174   */\n      dup2\n        /* \"#utility.yul\":2044:2175   */\n      tag_48\n      jump\t// in\n    tag_66:\n        /* \"#utility.yul\":2036:2175   */\n      swap1\n      pop\n        /* \"#utility.yul\":1763:2182   */\n      swap2\n      swap1\n      pop\n      jump\t// out\n        /* \"#utility.yul\":2188:2607   */\n    tag_31:\n        /* \"#utility.yul\":2354:2358   */\n      0x00\n        /* \"#utility.yul\":2392:2394   */\n      0x20\n        /* \"#utility.yul\":2381:2390   */\n      dup3\n        /* \"#utility.yul\":2377:2395   */\n      add\n        /* \"#utility.yul\":2369:2395   */\n      swap1\n      pop\n        /* \"#utility.yul\":2441:2450   */\n      dup2\n        /* \"#utility.yul\":2435:2439   */\n      dup2\n        /* \"#utility.yul\":2431:2451   */\n      sub\n        /* \"#utility.yul\":2427:2428   */\n      0x00\n        /* \"#utility.yul\":2416:2425   */\n      dup4\n        /* \"#utility.yul\":2412:2429   */\n      add\n        /* \"#utility.yul\":2405:2452   */\n      mstore\n        /* \"#utility.yul\":2469:2600   */\n      tag_68\n        /* \"#utility.yul\":2595:2599   */\n      dup2\n        /* \"#utility.yul\":2469:2600   */\n      tag_54\n      jump\t// in\n    tag_68:\n        /* \"#utility.yul\":2461:2600   */\n      swap1\n      pop\n        /* \"#utility.yul\":2188:2607   */\n      swap2\n      swap1\n      pop\n      jump\t// out\n        /* \"#utility.yul\":2613:2835   */\n    tag_16:\n        /* \"#utility.yul\":2706:2710   */\n      0x00\n        /* \"#utility.yul\":2744:2746   */\n      0x20\n        /* \"#utility.yul\":2733:2742   */\n      dup3\n        /* \"#utility.yul\":2729:2747   */\n      add\n        /* \"#utility.yul\":2721:2747   */\n      swap1\n      pop\n        /* \"#utility.yul\":2757:2828   */\n      tag_70\n        /* \"#utility.yul\":2825:2826   */\n      0x00\n        /* \"#utility.yul\":2814:2823   */\n      dup4\n        /* \"#utility.yul\":2810:2827   */\n      add\n        /* \"#utility.yul\":2801:2807   */\n      dup5\n        /* \"#utility.yul\":2757:2828   */\n      tag_59\n      jump\t// in\n    tag_70:\n        /* \"#utility.yul\":2613:2835   */\n      swap3\n      swap2\n      pop\n      pop\n      jump\t// out\n        /* \"#utility.yul\":2922:3091   */\n    tag_51:\n        /* \"#utility.yul\":3006:3017   */\n      0x00\n        /* \"#utility.yul\":3040:3046   */\n      dup3\n        /* \"#utility.yul\":3035:3038   */\n      dup3\n        /* \"#utility.yul\":3028:3047   */\n      mstore\n        /* \"#utility.yul\":3080:3084   */\n      0x20\n        /* \"#utility.yul\":3075:3078   */\n      dup3\n        /* \"#utility.yul\":3071:3085   */\n      add\n        /* \"#utility.yul\":3056:3085   */\n      swap1\n      pop\n        /* \"#utility.yul\":2922:3091   */\n      swap3\n      swap2\n      pop\n      pop\n      jump\t// out\n        /* \"#utility.yul\":3097:3201   */\n    tag_47:\n        /* \"#utility.yul\":3142:3149   */\n      0x00\n        /* \"#utility.yul\":3171:3195   */\n      tag_75\n        /* \"#utility.yul\":3189:3194   */\n      dup3\n        /* \"#utility.yul\":3171:3195   */\n      tag_76\n      jump\t// in\n    tag_75:\n        /* \"#utility.yul\":3160:3195   */\n      swap1\n      pop\n        /* \"#utility.yul\":3097:3201   */\n      swap2\n      swap1\n      pop\n      jump\t// out\n        /* \"#utility.yul\":3207:3333   */\n    tag_76:\n        /* \"#utility.yul\":3244:3251   */\n      0x00\n        /* \"#utility.yul\":3284:3326   */\n      0xffffffffffffffffffffffffffffffffffffffff\n        /* \"#utility.yul\":3277:3282   */\n      dup3\n        /* \"#utility.yul\":3273:3327   */\n      and\n        /* \"#utility.yul\":3262:3327   */\n      swap1\n      pop\n        /* \"#utility.yul\":3207:3333   */\n      swap2\n      swap1\n      pop\n      jump\t// out\n        /* \"#utility.yul\":3339:3416   */\n    tag_62:\n        /* \"#utility.yul\":3376:3383   */\n      0x00\n        /* \"#utility.yul\":3405:3410   */\n      dup2\n        /* \"#utility.yul\":3394:3410   */\n      swap1\n      pop\n        /* \"#utility.yul\":3339:3416   */\n      swap2\n      swap1\n      pop\n      jump\t// out\n        /* \"#utility.yul\":3545:3662   */\n    tag_42:\n        /* \"#utility.yul\":3654:3655   */\n      0x00\n        /* \"#utility.yul\":3651:3652   */\n      dup1\n        /* \"#utility.yul\":3644:3656   */\n      revert\n        /* \"#utility.yul\":3668:3840   */\n    tag_53:\n        /* \"#utility.yul\":3808:3832   */\n      0x76616c7565206d61757374206265203120657468657200000000000000000000\n        /* \"#utility.yul\":3804:3805   */\n      0x00\n        /* \"#utility.yul\":3796:3802   */\n      dup3\n        /* \"#utility.yul\":3792:3806   */\n      add\n        /* \"#utility.yul\":3785:3833   */\n      mstore\n        /* \"#utility.yul\":3668:3840   */\n      pop\n      jump\t// out\n        /* \"#utility.yul\":3846:4067   */\n    tag_58:\n        /* \"#utility.yul\":3986:4020   */\n      0x6f6e6c79206d616e616765722063616e20636865636b207468652062616c616e\n        /* \"#utility.yul\":3982:3983   */\n      0x00\n        /* \"#utility.yul\":3974:3980   */\n      dup3\n        /* \"#utility.yul\":3970:3984   */\n      add\n        /* \"#utility.yul\":3963:4021   */\n      mstore\n        /* \"#utility.yul\":4055:4059   */\n      0x6365000000000000000000000000000000000000000000000000000000000000\n        /* \"#utility.yul\":4050:4052   */\n      0x20\n        /* \"#utility.yul\":4042:4048   */\n      dup3\n        /* \"#utility.yul\":4038:4053   */\n      add\n        /* \"#utility.yul\":4031:4060   */\n      mstore\n        /* \"#utility.yul\":3846:4067   */\n      pop\n      jump\t// out\n        /* \"#utility.yul\":4073:4195   */\n    tag_38:\n        /* \"#utility.yul\":4146:4170   */\n      tag_85\n        /* \"#utility.yul\":4164:4169   */\n      dup2\n        /* \"#utility.yul\":4146:4170   */\n      tag_62\n      jump\t// in\n    tag_85:\n        /* \"#utility.yul\":4139:4144   */\n      dup2\n        /* \"#utility.yul\":4136:4171   */\n      eq\n        /* \"#utility.yul\":4126:4189   */\n      tag_86\n      jumpi\n        /* \"#utility.yul\":4185:4186   */\n      0x00\n        /* \"#utility.yul\":4182:4183   */\n      dup1\n        /* \"#utility.yul\":4175:4187   */\n      revert\n        /* \"#utility.yul\":4126:4189   */\n    tag_86:\n        /* \"#utility.yul\":4073:4195   */\n      pop\n      jump\t// out\n\n    auxdata: 0xa2646970667358221220a05c7d2c77fa3970b8923d54d2f950b193e5594e96eaa7e05f548d30791f9a3664736f6c63430008070033\n}\n",
				"bytecode": {
					"linkReferences": {},
					"object": "608060405234801561001057600080fd5b5033600160006101000a81548173ffffffffffffffffffffffffffffffffffffffff021916908373ffffffffffffffffffffffffffffffffffffffff1602179055506104b4806100616000396000f3fe6080604052600436106100385760003560e01c806312065fe0146100f1578063dfbf53ae1461011c578063f71d96cb14610147576100ec565b366100ec57670de0b6b3a76400003414610087576040517f08c379a000000000000000000000000000000000000000000000000000000000815260040161007e90610342565b60405180910390fd5b6000339080600181540180825580915050600190039060005260206000200160009091909190916101000a81548173ffffffffffffffffffffffffffffffffffffffff021916908373ffffffffffffffffffffffffffffffffffffffff160217905550005b600080fd5b3480156100fd57600080fd5b50610106610184565b6040516101139190610382565b60405180910390f35b34801561012857600080fd5b5061013161021c565b60405161013e9190610327565b60405180910390f35b34801561015357600080fd5b5061016e60048036038101906101699190610296565b610242565b60405161017b9190610327565b60405180910390f35b6000600160009054906101000a900473ffffffffffffffffffffffffffffffffffffffff1673ffffffffffffffffffffffffffffffffffffffff163373ffffffffffffffffffffffffffffffffffffffff1614610216576040517f08c379a000000000000000000000000000000000000000000000000000000000815260040161020d90610362565b60405180910390fd5b47905090565b600260009054906101000a900473ffffffffffffffffffffffffffffffffffffffff1681565b6000818154811061025257600080fd5b906000526020600020016000915054906101000a900473ffffffffffffffffffffffffffffffffffffffff1681565b60008135905061029081610467565b92915050565b6000602082840312156102ac576102ab6103ea565b5b60006102ba84828501610281565b91505092915050565b6102cc816103ae565b82525050565b60006102df60168361039d565b91506102ea826103ef565b602082019050919050565b600061030260228361039d565b915061030d82610418565b604082019050919050565b610321816103e0565b82525050565b600060208201905061033c60008301846102c3565b92915050565b6000602082019050818103600083015261035b816102d2565b9050919050565b6000602082019050818103600083015261037b816102f5565b9050919050565b60006020820190506103976000830184610318565b92915050565b600082825260208201905092915050565b60006103b9826103c0565b9050919050565b600073ffffffffffffffffffffffffffffffffffffffff82169050919050565b6000819050919050565b600080fd5b7f76616c7565206d61757374206265203120657468657200000000000000000000600082015250565b7f6f6e6c79206d616e616765722063616e20636865636b207468652062616c616e60008201527f6365000000000000000000000000000000000000000000000000000000000000602082015250565b610470816103e0565b811461047b57600080fd5b5056fea2646970667358221220a05c7d2c77fa3970b8923d54d2f950b193e5594e96eaa7e05f548d30791f9a3664736f6c63430008070033",
					"opcodes": "PUSH1 0x80 PUSH1 0x40 MSTORE CALLVALUE DUP1 ISZERO PUSH2 0x10 JUMPI PUSH1 0x0 DUP1 REVERT JUMPDEST POP CALLER PUSH1 0x1 PUSH1 0x0 PUSH2 0x100 EXP DUP2 SLOAD DUP2 PUSH20 0xFFFFFFFFFFFFFFFFFFFFFFFFFFFFFFFFFFFFFFFF MUL NOT AND SWAP1 DUP4 PUSH20 0xFFFFFFFFFFFFFFFFFFFFFFFFFFFFFFFFFFFFFFFF AND MUL OR SWAP1 SSTORE POP PUSH2 0x4B4 DUP1 PUSH2 0x61 PUSH1 0x0 CODECOPY PUSH1 0x0 RETURN INVALID PUSH1 0x80 PUSH1 0x40 MSTORE PUSH1 0x4 CALLDATASIZE LT PUSH2 0x38 JUMPI PUSH1 0x0 CALLDATALOAD PUSH1 0xE0 SHR DUP1 PUSH4 0x12065FE0 EQ PUSH2 0xF1 JUMPI DUP1 PUSH4 0xDFBF53AE EQ PUSH2 0x11C JUMPI DUP1 PUSH4 0xF71D96CB EQ PUSH2 0x147 JUMPI PUSH2 0xEC JUMP JUMPDEST CALLDATASIZE PUSH2 0xEC JUMPI PUSH8 0xDE0B6B3A7640000 CALLVALUE EQ PUSH2 0x87 JUMPI PUSH1 0x40 MLOAD PUSH32 0x8C379A000000000000000000000000000000000000000000000000000000000 DUP2 MSTORE PUSH1 0x4 ADD PUSH2 0x7E SWAP1 PUSH2 0x342 JUMP JUMPDEST PUSH1 0x40 MLOAD DUP1 SWAP2 SUB SWAP1 REVERT JUMPDEST PUSH1 0x0 CALLER SWAP1 DUP1 PUSH1 0x1 DUP2 SLOAD ADD DUP1 DUP3 SSTORE DUP1 SWAP2 POP POP PUSH1 0x1 SWAP1 SUB SWAP1 PUSH1 0x0 MSTORE PUSH1 0x20 PUSH1 0x0 KECCAK256 ADD PUSH1 0x0 SWAP1 SWAP2 SWAP1 SWAP2 SWAP1 SWAP2 PUSH2 0x100 EXP DUP2 SLOAD DUP2 PUSH20 0xFFFFFFFFFFFFFFFFFFFFFFFFFFFFFFFFFFFFFFFF MUL NOT AND SWAP1 DUP4 PUSH20 0xFFFFFFFFFFFFFFFFFFFFFFFFFFFFFFFFFFFFFFFF AND MUL OR SWAP1 SSTORE POP STOP JUMPDEST PUSH1 0x0 DUP1 REVERT JUMPDEST CALLVALUE DUP1 ISZERO PUSH2 0xFD JUMPI PUSH1 0x0 DUP1 REVERT JUMPDEST POP PUSH2 0x106 PUSH2 0x184 JUMP JUMPDEST PUSH1 0x40 MLOAD PUSH2 0x113 SWAP2 SWAP1 PUSH2 0x382 JUMP JUMPDEST PUSH1 0x40 MLOAD DUP1 SWAP2 SUB SWAP1 RETURN JUMPDEST CALLVALUE DUP1 ISZERO PUSH2 0x128 JUMPI PUSH1 0x0 DUP1 REVERT JUMPDEST POP PUSH2 0x131 PUSH2 0x21C JUMP JUMPDEST PUSH1 0x40 MLOAD PUSH2 0x13E SWAP2 SWAP1 PUSH2 0x327 JUMP JUMPDEST PUSH1 0x40 MLOAD DUP1 SWAP2 SUB SWAP1 RETURN JUMPDEST CALLVALUE DUP1 ISZERO PUSH2 0x153 JUMPI PUSH1 0x0 DUP1 REVERT JUMPDEST POP PUSH2 0x16E PUSH1 0x4 DUP1 CALLDATASIZE SUB DUP2 ADD SWAP1 PUSH2 0x169 SWAP2 SWAP1 PUSH2 0x296 JUMP JUMPDEST PUSH2 0x242 JUMP JUMPDEST PUSH1 0x40 MLOAD PUSH2 0x17B SWAP2 SWAP1 PUSH2 0x327 JUMP JUMPDEST PUSH1 0x40 MLOAD DUP1 SWAP2 SUB SWAP1 RETURN JUMPDEST PUSH1 0x0 PUSH1 0x1 PUSH1 0x0 SWAP1 SLOAD SWAP1 PUSH2 0x100 EXP SWAP1 DIV PUSH20 0xFFFFFFFFFFFFFFFFFFFFFFFFFFFFFFFFFFFFFFFF AND PUSH20 0xFFFFFFFFFFFFFFFFFFFFFFFFFFFFFFFFFFFFFFFF AND CALLER PUSH20 0xFFFFFFFFFFFFFFFFFFFFFFFFFFFFFFFFFFFFFFFF AND EQ PUSH2 0x216 JUMPI PUSH1 0x40 MLOAD PUSH32 0x8C379A000000000000000000000000000000000000000000000000000000000 DUP2 MSTORE PUSH1 0x4 ADD PUSH2 0x20D SWAP1 PUSH2 0x362 JUMP JUMPDEST PUSH1 0x40 MLOAD DUP1 SWAP2 SUB SWAP1 REVERT JUMPDEST SELFBALANCE SWAP1 POP SWAP1 JUMP JUMPDEST PUSH1 0x2 PUSH1 0x0 SWAP1 SLOAD SWAP1 PUSH2 0x100 EXP SWAP1 DIV PUSH20 0xFFFFFFFFFFFFFFFFFFFFFFFFFFFFFFFFFFFFFFFF AND DUP2 JUMP JUMPDEST PUSH1 0x0 DUP2 DUP2 SLOAD DUP2 LT PUSH2 0x252 JUMPI PUSH1 0x0 DUP1 REVERT JUMPDEST SWAP1 PUSH1 0x0 MSTORE PUSH1 0x20 PUSH1 0x0 KECCAK256 ADD PUSH1 0x0 SWAP2 POP SLOAD SWAP1 PUSH2 0x100 EXP SWAP1 DIV PUSH20 0xFFFFFFFFFFFFFFFFFFFFFFFFFFFFFFFFFFFFFFFF AND DUP2 JUMP JUMPDEST PUSH1 0x0 DUP2 CALLDATALOAD SWAP1 POP PUSH2 0x290 DUP2 PUSH2 0x467 JUMP JUMPDEST SWAP3 SWAP2 POP POP JUMP JUMPDEST PUSH1 0x0 PUSH1 0x20 DUP3 DUP5 SUB SLT ISZERO PUSH2 0x2AC JUMPI PUSH2 0x2AB PUSH2 0x3EA JUMP JUMPDEST JUMPDEST PUSH1 0x0 PUSH2 0x2BA DUP5 DUP3 DUP6 ADD PUSH2 0x281 JUMP JUMPDEST SWAP2 POP POP SWAP3 SWAP2 POP POP JUMP JUMPDEST PUSH2 0x2CC DUP2 PUSH2 0x3AE JUMP JUMPDEST DUP3 MSTORE POP POP JUMP JUMPDEST PUSH1 0x0 PUSH2 0x2DF PUSH1 0x16 DUP4 PUSH2 0x39D JUMP JUMPDEST SWAP2 POP PUSH2 0x2EA DUP3 PUSH2 0x3EF JUMP JUMPDEST PUSH1 0x20 DUP3 ADD SWAP1 POP SWAP2 SWAP1 POP JUMP JUMPDEST PUSH1 0x0 PUSH2 0x302 PUSH1 0x22 DUP4 PUSH2 0x39D JUMP JUMPDEST SWAP2 POP PUSH2 0x30D DUP3 PUSH2 0x418 JUMP JUMPDEST PUSH1 0x40 DUP3 ADD SWAP1 POP SWAP2 SWAP1 POP JUMP JUMPDEST PUSH2 0x321 DUP2 PUSH2 0x3E0 JUMP JUMPDEST DUP3 MSTORE POP POP JUMP JUMPDEST PUSH1 0x0 PUSH1 0x20 DUP3 ADD SWAP1 POP PUSH2 0x33C PUSH1 0x0 DUP4 ADD DUP5 PUSH2 0x2C3 JUMP JUMPDEST SWAP3 SWAP2 POP POP JUMP JUMPDEST PUSH1 0x0 PUSH1 0x20 DUP3 ADD SWAP1 POP DUP2 DUP2 SUB PUSH1 0x0 DUP4 ADD MSTORE PUSH2 0x35B DUP2 PUSH2 0x2D2 JUMP JUMPDEST SWAP1 POP SWAP2 SWAP1 POP JUMP JUMPDEST PUSH1 0x0 PUSH1 0x20 DUP3 ADD SWAP1 POP DUP2 DUP2 SUB PUSH1 0x0 DUP4 ADD MSTORE PUSH2 0x37B DUP2 PUSH2 0x2F5 JUMP JUMPDEST SWAP1 POP SWAP2 SWAP1 POP JUMP JUMPDEST PUSH1 0x0 PUSH1 0x20 DUP3 ADD SWAP1 POP PUSH2 0x397 PUSH1 0x0 DUP4 ADD DUP5 PUSH2 0x318 JUMP JUMPDEST SWAP3 SWAP2 POP POP JUMP JUMPDEST PUSH1 0x0 DUP3 DUP3 MSTORE PUSH1 0x20 DUP3 ADD SWAP1 POP SWAP3 SWAP2 POP POP JUMP JUMPDEST PUSH1 0x0 PUSH2 0x3B9 DUP3 PUSH2 0x3C0 JUMP JUMPDEST SWAP1 POP SWAP2 SWAP1 POP JUMP JUMPDEST PUSH1 0x0 PUSH20 0xFFFFFFFFFFFFFFFFFFFFFFFFFFFFFFFFFFFFFFFF DUP3 AND SWAP1 POP SWAP2 SWAP1 POP JUMP JUMPDEST PUSH1 0x0 DUP2 SWAP1 POP SWAP2 SWAP1 POP JUMP JUMPDEST PUSH1 0x0 DUP1 REVERT JUMPDEST PUSH32 0x76616C7565206D61757374206265203120657468657200000000000000000000 PUSH1 0x0 DUP3 ADD MSTORE POP JUMP JUMPDEST PUSH32 0x6F6E6C79206D616E616765722063616E20636865636B207468652062616C616E PUSH1 0x0 DUP3 ADD MSTORE PUSH32 0x6365000000000000000000000000000000000000000000000000000000000000 PUSH1 0x20 DUP3 ADD MSTORE POP JUMP JUMPDEST PUSH2 0x470 DUP2 PUSH2 0x3E0 JUMP JUMPDEST DUP2 EQ PUSH2 0x47B JUMPI PUSH1 0x0 DUP1 REVERT JUMPDEST POP JUMP INVALID LOG2 PUSH5 0x6970667358 0x22 SLT KECCAK256 LOG0 0x5C PUSH30 0x2C77FA3970B8923D54D2F950B193E5594E96EAA7E05F548D30791F9A3664 PUSH20 0x6F6C634300080700330000000000000000000000 "
				},
				"gasEstimates": {
					"creation": {
						"codeDepositCost": "240800",
						"executionCost": "24547",
						"totalCost": "265347"
					},
					"external": {
						"getBalance()": "2602",
						"players(uint256)": "4978",
						"winner()": "2514"
					},
					"internal": {
						"random()": "infinite"
					}
				},
				"methodIdentifiers": {
					"getBalance()": "12065fe0",
					"players(uint256)": "f71d96cb",
					"winner()": "dfbf53ae"
				}
			},
			"storageLayout": {
				"storage": [
					{
						"astId": 4,
						"contract": "contracts/Lottery.sol:Lottery",
						"label": "players",
						"offset": 0,
						"slot": "0",
						"type": "t_array(t_address_payable)dyn_storage"
					},
					{
						"astId": 6,
						"contract": "contracts/Lottery.sol:Lottery",
						"label": "manager",
						"offset": 0,
						"slot": "1",
						"type": "t_address"
					},
					{
						"astId": 8,
						"contract": "contracts/Lottery.sol:Lottery",
						"label": "winner",
						"offset": 0,
						"slot": "2",
						"type": "t_address_payable"
					}
				],
				"types": {
					"t_address": {
						"encoding": "inplace",
						"label": "address",
						"numberOfBytes": "20"
					},
					"t_address_payable": {
						"encoding": "inplace",
						"label": "address payable",
						"numberOfBytes": "20"
					},
					"t_array(t_address_payable)dyn_storage": {
						"base": "t_address_payable",
						"encoding": "dynamic_array",
						"label": "address payable[]",
						"numberOfBytes": "32"
					}
				}
			},
			"userdoc": {
				"kind": "user",
				"methods": {},
				"version": 1
			}
		}
	}
}